{
  "_format": "hh-sol-artifact-1",
  "contractName": "ElectraToken",
  "sourceName": "contracts/ElectraToken.sol",
  "abi": [
    {
      "inputs": [],
      "stateMutability": "nonpayable",
      "type": "constructor"
    },
    {
      "anonymous": false,
      "inputs": [
        {
          "indexed": true,
          "internalType": "address",
          "name": "owner",
          "type": "address"
        },
        {
          "indexed": true,
          "internalType": "address",
          "name": "spender",
          "type": "address"
        },
        {
          "indexed": false,
          "internalType": "uint256",
          "name": "value",
          "type": "uint256"
        }
      ],
      "name": "Approval",
      "type": "event"
    },
    {
      "anonymous": false,
      "inputs": [
        {
          "indexed": true,
          "internalType": "address",
          "name": "delegator",
          "type": "address"
        },
        {
          "indexed": true,
          "internalType": "address",
          "name": "fromDelegate",
          "type": "address"
        },
        {
          "indexed": true,
          "internalType": "address",
          "name": "toDelegate",
          "type": "address"
        }
      ],
      "name": "DelegateChanged",
      "type": "event"
    },
    {
      "anonymous": false,
      "inputs": [
        {
          "indexed": true,
          "internalType": "address",
          "name": "delegate",
          "type": "address"
        },
        {
          "indexed": false,
          "internalType": "uint256",
          "name": "previousBalance",
          "type": "uint256"
        },
        {
          "indexed": false,
          "internalType": "uint256",
          "name": "newBalance",
          "type": "uint256"
        }
      ],
      "name": "DelegateVotesChanged",
      "type": "event"
    },
    {
      "anonymous": false,
      "inputs": [
        {
          "indexed": true,
          "internalType": "address",
          "name": "from",
          "type": "address"
        },
        {
          "indexed": true,
          "internalType": "address",
          "name": "to",
          "type": "address"
        },
        {
          "indexed": false,
          "internalType": "uint256",
          "name": "value",
          "type": "uint256"
        }
      ],
      "name": "Transfer",
      "type": "event"
    },
    {
      "inputs": [],
      "name": "DOMAIN_SEPARATOR",
      "outputs": [
        {
          "internalType": "bytes32",
          "name": "",
          "type": "bytes32"
        }
      ],
      "stateMutability": "view",
      "type": "function"
    },
    {
      "inputs": [
        {
          "internalType": "address",
          "name": "owner",
          "type": "address"
        },
        {
          "internalType": "address",
          "name": "spender",
          "type": "address"
        }
      ],
      "name": "allowance",
      "outputs": [
        {
          "internalType": "uint256",
          "name": "",
          "type": "uint256"
        }
      ],
      "stateMutability": "view",
      "type": "function"
    },
    {
      "inputs": [
        {
          "internalType": "address",
          "name": "spender",
          "type": "address"
        },
        {
          "internalType": "uint256",
          "name": "amount",
          "type": "uint256"
        }
      ],
      "name": "approve",
      "outputs": [
        {
          "internalType": "bool",
          "name": "",
          "type": "bool"
        }
      ],
      "stateMutability": "nonpayable",
      "type": "function"
    },
    {
      "inputs": [
        {
          "internalType": "address",
          "name": "account",
          "type": "address"
        }
      ],
      "name": "balanceOf",
      "outputs": [
        {
          "internalType": "uint256",
          "name": "",
          "type": "uint256"
        }
      ],
      "stateMutability": "view",
      "type": "function"
    },
    {
      "inputs": [
        {
          "internalType": "address",
          "name": "account",
          "type": "address"
        },
        {
          "internalType": "uint32",
          "name": "pos",
          "type": "uint32"
        }
      ],
      "name": "checkpoints",
      "outputs": [
        {
          "components": [
            {
              "internalType": "uint32",
              "name": "fromBlock",
              "type": "uint32"
            },
            {
              "internalType": "uint224",
              "name": "votes",
              "type": "uint224"
            }
          ],
          "internalType": "struct ERC20Votes.Checkpoint",
          "name": "",
          "type": "tuple"
        }
      ],
      "stateMutability": "view",
      "type": "function"
    },
    {
      "inputs": [],
      "name": "decimals",
      "outputs": [
        {
          "internalType": "uint8",
          "name": "",
          "type": "uint8"
        }
      ],
      "stateMutability": "view",
      "type": "function"
    },
    {
      "inputs": [
        {
          "internalType": "address",
          "name": "spender",
          "type": "address"
        },
        {
          "internalType": "uint256",
          "name": "subtractedValue",
          "type": "uint256"
        }
      ],
      "name": "decreaseAllowance",
      "outputs": [
        {
          "internalType": "bool",
          "name": "",
          "type": "bool"
        }
      ],
      "stateMutability": "nonpayable",
      "type": "function"
    },
    {
      "inputs": [
        {
          "internalType": "address",
          "name": "delegatee",
          "type": "address"
        }
      ],
      "name": "delegate",
      "outputs": [],
      "stateMutability": "nonpayable",
      "type": "function"
    },
    {
      "inputs": [
        {
          "internalType": "address",
          "name": "delegatee",
          "type": "address"
        },
        {
          "internalType": "uint256",
          "name": "nonce",
          "type": "uint256"
        },
        {
          "internalType": "uint256",
          "name": "expiry",
          "type": "uint256"
        },
        {
          "internalType": "uint8",
          "name": "v",
          "type": "uint8"
        },
        {
          "internalType": "bytes32",
          "name": "r",
          "type": "bytes32"
        },
        {
          "internalType": "bytes32",
          "name": "s",
          "type": "bytes32"
        }
      ],
      "name": "delegateBySig",
      "outputs": [],
      "stateMutability": "nonpayable",
      "type": "function"
    },
    {
      "inputs": [
        {
          "internalType": "address",
          "name": "account",
          "type": "address"
        }
      ],
      "name": "delegates",
      "outputs": [
        {
          "internalType": "address",
          "name": "",
          "type": "address"
        }
      ],
      "stateMutability": "view",
      "type": "function"
    },
    {
      "inputs": [
        {
          "internalType": "address",
          "name": "to",
          "type": "address"
        },
        {
          "internalType": "uint256",
          "name": "amount",
          "type": "uint256"
        }
      ],
      "name": "faucet",
      "outputs": [],
      "stateMutability": "nonpayable",
      "type": "function"
    },
    {
      "inputs": [
        {
          "internalType": "uint256",
          "name": "blockNumber",
          "type": "uint256"
        }
      ],
      "name": "getPastTotalSupply",
      "outputs": [
        {
          "internalType": "uint256",
          "name": "",
          "type": "uint256"
        }
      ],
      "stateMutability": "view",
      "type": "function"
    },
    {
      "inputs": [
        {
          "internalType": "address",
          "name": "account",
          "type": "address"
        },
        {
          "internalType": "uint256",
          "name": "blockNumber",
          "type": "uint256"
        }
      ],
      "name": "getPastVotes",
      "outputs": [
        {
          "internalType": "uint256",
          "name": "",
          "type": "uint256"
        }
      ],
      "stateMutability": "view",
      "type": "function"
    },
    {
      "inputs": [
        {
          "internalType": "address",
          "name": "account",
          "type": "address"
        }
      ],
      "name": "getVotes",
      "outputs": [
        {
          "internalType": "uint256",
          "name": "",
          "type": "uint256"
        }
      ],
      "stateMutability": "view",
      "type": "function"
    },
    {
      "inputs": [
        {
          "internalType": "address",
          "name": "spender",
          "type": "address"
        },
        {
          "internalType": "uint256",
          "name": "addedValue",
          "type": "uint256"
        }
      ],
      "name": "increaseAllowance",
      "outputs": [
        {
          "internalType": "bool",
          "name": "",
          "type": "bool"
        }
      ],
      "stateMutability": "nonpayable",
      "type": "function"
    },
    {
      "inputs": [],
      "name": "name",
      "outputs": [
        {
          "internalType": "string",
          "name": "",
          "type": "string"
        }
      ],
      "stateMutability": "view",
      "type": "function"
    },
    {
      "inputs": [
        {
          "internalType": "address",
          "name": "owner",
          "type": "address"
        }
      ],
      "name": "nonces",
      "outputs": [
        {
          "internalType": "uint256",
          "name": "",
          "type": "uint256"
        }
      ],
      "stateMutability": "view",
      "type": "function"
    },
    {
      "inputs": [
        {
          "internalType": "address",
          "name": "account",
          "type": "address"
        }
      ],
      "name": "numCheckpoints",
      "outputs": [
        {
          "internalType": "uint32",
          "name": "",
          "type": "uint32"
        }
      ],
      "stateMutability": "view",
      "type": "function"
    },
    {
      "inputs": [
        {
          "internalType": "address",
          "name": "owner",
          "type": "address"
        },
        {
          "internalType": "address",
          "name": "spender",
          "type": "address"
        },
        {
          "internalType": "uint256",
          "name": "value",
          "type": "uint256"
        },
        {
          "internalType": "uint256",
          "name": "deadline",
          "type": "uint256"
        },
        {
          "internalType": "uint8",
          "name": "v",
          "type": "uint8"
        },
        {
          "internalType": "bytes32",
          "name": "r",
          "type": "bytes32"
        },
        {
          "internalType": "bytes32",
          "name": "s",
          "type": "bytes32"
        }
      ],
      "name": "permit",
      "outputs": [],
      "stateMutability": "nonpayable",
      "type": "function"
    },
    {
      "inputs": [],
      "name": "s_maxSupply",
      "outputs": [
        {
          "internalType": "uint256",
          "name": "",
          "type": "uint256"
        }
      ],
      "stateMutability": "view",
      "type": "function"
    },
    {
      "inputs": [],
      "name": "symbol",
      "outputs": [
        {
          "internalType": "string",
          "name": "",
          "type": "string"
        }
      ],
      "stateMutability": "view",
      "type": "function"
    },
    {
      "inputs": [],
      "name": "totalSupply",
      "outputs": [
        {
          "internalType": "uint256",
          "name": "",
          "type": "uint256"
        }
      ],
      "stateMutability": "view",
      "type": "function"
    },
    {
      "inputs": [
        {
          "internalType": "address",
          "name": "to",
          "type": "address"
        },
        {
          "internalType": "uint256",
          "name": "amount",
          "type": "uint256"
        }
      ],
      "name": "transfer",
      "outputs": [
        {
          "internalType": "bool",
          "name": "",
          "type": "bool"
        }
      ],
      "stateMutability": "nonpayable",
      "type": "function"
    },
    {
      "inputs": [
        {
          "internalType": "address",
          "name": "from",
          "type": "address"
        },
        {
          "internalType": "address",
          "name": "to",
          "type": "address"
        },
        {
          "internalType": "uint256",
          "name": "amount",
          "type": "uint256"
        }
      ],
      "name": "transferFrom",
      "outputs": [
        {
          "internalType": "bool",
          "name": "",
          "type": "bool"
        }
      ],
      "stateMutability": "nonpayable",
      "type": "function"
    }
  ],
  "bytecode": "0x61014060405269d3c21bcecceda1000000600a553480156200002057600080fd5b506040518060400160405280600c81526020016b22b632b1ba3930aa37b5b2b760a11b81525080604051806040016040528060018152602001603160f81b8152506040518060400160405280600c81526020016b22b632b1ba3930aa37b5b2b760a11b81525060405180604001604052806004815260200163115310d560e21b8152508160039080519060200190620000bb9291906200075c565b508051620000d19060049060208401906200075c565b5050825160208085019190912083518483012060e08290526101008190524660a0818152604080517f8b73c3c69bb8fe3d512ecc4cf759cc79239f7b179b0ffacaa9a75d522b39400f81880181905281830187905260608201869052608082019490945230818401528151808203909301835260c0019052805194019390932091935091906080523060c052610120525050600a546200018493503392506200017e91506002906200080e565b620001a0565b6200019a306002600a546200017e91906200080e565b620008a3565b620001b78282620001bb60201b62000a471760201c565b5050565b620001d282826200027260201b62000ad71760201c565b6001600160e01b03620001e66200033f8216565b1115620002535760405162461bcd60e51b815260206004820152603060248201527f4552433230566f7465733a20746f74616c20737570706c79207269736b73206f60448201526f766572666c6f77696e6720766f74657360801b60648201526084015b60405180910390fd5b6200026c600962000b9e6200034560201b17836200035a565b50505050565b6001600160a01b038216620002ca5760405162461bcd60e51b815260206004820152601f60248201527f45524332303a206d696e7420746f20746865207a65726f20616464726573730060448201526064016200024a565b8060026000828254620002de919062000831565b90915550506001600160a01b038216600081815260208181526040808320805486019055518481527fddf252ad1be2c89b69c2b068fc378daa952ba7f163c4a11628f55a4df523b3ef910160405180910390a3620001b760008383620004f1565b60025490565b600062000353828462000831565b9392505050565b82546000908190818115620003ba5762000389876200037b6001856200084c565b600091825260209091200190565b60408051808201909152905463ffffffff8116825264010000000090046001600160e01b03166020820152620003cf565b60408051808201909152600080825260208201525b905080602001516001600160e01b03169350620003ed84868860201c565b9250600082118015620004065750805163ffffffff1643145b156200045d5762000422836200050960201b62000baa1760201c565b62000434886200037b6001866200084c565b80546001600160e01b03929092166401000000000263ffffffff909216919091179055620004e2565b8660405180604001604052806200047f436200057860201b62000c171760201c565b63ffffffff168152602001620004a0866200050960201b62000baa1760201c565b6001600160e01b0390811690915282546001810184556000938452602093849020835194909301519091166401000000000263ffffffff909316929092179101555b5050935093915050565b505050565b620004ec838383620005df60201b62000c7c1760201c565b60006001600160e01b03821115620005745760405162461bcd60e51b815260206004820152602760248201527f53616665436173743a2076616c756520646f65736e27742066697420696e20326044820152663234206269747360c81b60648201526084016200024a565b5090565b600063ffffffff821115620005745760405162461bcd60e51b815260206004820152602660248201527f53616665436173743a2076616c756520646f65736e27742066697420696e203360448201526532206269747360d01b60648201526084016200024a565b620005f7838383620004ec60201b62000cae1760201c565b6001600160a01b03838116600090815260076020526040808220548584168352912054620004ec92918216911683818314801590620006365750600081115b15620004ec576001600160a01b03831615620006c3576001600160a01b0383166000908152600860209081526040822082916200068091906200074e901b62000cb317856200035a565b91509150846001600160a01b0316600080516020620025e68339815191528383604051620006b8929190918252602082015260400190565b60405180910390a250505b6001600160a01b03821615620004ec576001600160a01b03821660009081526008602090815260408220829162000707919062000345901b62000b9e17856200035a565b91509150836001600160a01b0316600080516020620025e683398151915283836040516200073f929190918252602082015260400190565b60405180910390a25050505050565b60006200035382846200084c565b8280546200076a9062000866565b90600052602060002090601f0160209004810192826200078e5760008555620007d9565b82601f10620007a957805160ff1916838001178555620007d9565b82800160010185558215620007d9579182015b82811115620007d9578251825591602001919060010190620007bc565b50620005749291505b80821115620005745760008155600101620007e2565b634e487b7160e01b600052601160045260246000fd5b6000826200082c57634e487b7160e01b600052601260045260246000fd5b500490565b60008219821115620008475762000847620007f8565b500190565b600082821015620008615762000861620007f8565b500390565b600181811c908216806200087b57607f821691505b602082108114156200089d57634e487b7160e01b600052602260045260246000fd5b50919050565b60805160a05160c05160e0516101005161012051611cf3620008f3600039600061108b015260006110da015260006110b50152600061100e01526000611038015260006110620152611cf36000f3fe608060405234801561001057600080fd5b50600436106101585760003560e01c806370a08231116100c3578063a457c2d71161007c578063a457c2d714610307578063a9059cbb1461031a578063c3cda5201461032d578063d505accf14610340578063dd62ed3e14610353578063f1127ed81461036657600080fd5b806370a082311461028a5780637b56c2b2146102b35780637ecebe00146102c65780638e539e8c146102d957806395d89b41146102ec5780639ab24eb0146102f457600080fd5b8063395093511161011557806339509351146101da5780633a46b1a8146101ed578063587cde1e146102005780635c19a95c146102445780635d641847146102595780636fcfff451461026257600080fd5b806306fdde031461015d578063095ea7b31461017b57806318160ddd1461019e57806323b872dd146101b0578063313ce567146101c35780633644e515146101d2575b600080fd5b6101656103a3565b604051610172919061198e565b60405180910390f35b61018e6101893660046119ff565b610435565b6040519015158152602001610172565b6002545b604051908152602001610172565b61018e6101be366004611a29565b61044d565b60405160128152602001610172565b6101a2610471565b61018e6101e83660046119ff565b610480565b6101a26101fb3660046119ff565b6104a2565b61022c61020e366004611a65565b6001600160a01b039081166000908152600760205260409020541690565b6040516001600160a01b039091168152602001610172565b610257610252366004611a65565b610521565b005b6101a2600a5481565b610275610270366004611a65565b61052e565b60405163ffffffff9091168152602001610172565b6101a2610298366004611a65565b6001600160a01b031660009081526020819052604090205490565b6102576102c13660046119ff565b610556565b6101a26102d4366004611a65565b610565565b6101a26102e7366004611a80565b610583565b6101656105df565b6101a2610302366004611a65565b6105ee565b61018e6103153660046119ff565b610675565b61018e6103283660046119ff565b6106f0565b61025761033b366004611aaa565b6106fe565b61025761034e366004611b02565b610834565b6101a2610361366004611b6c565b610998565b610379610374366004611b9f565b6109c3565b60408051825163ffffffff1681526020928301516001600160e01b03169281019290925201610172565b6060600380546103b290611bdf565b80601f01602080910402602001604051908101604052809291908181526020018280546103de90611bdf565b801561042b5780601f106104005761010080835404028352916020019161042b565b820191906000526020600020905b81548152906001019060200180831161040e57829003601f168201915b5050505050905090565b600033610443818585610cbf565b5060019392505050565b60003361045b858285610de3565b610466858585610e57565b506001949350505050565b600061047b611001565b905090565b6000336104438185856104938383610998565b61049d9190611c2a565b610cbf565b60004382106104f85760405162461bcd60e51b815260206004820152601f60248201527f4552433230566f7465733a20626c6f636b206e6f7420796574206d696e65640060448201526064015b60405180910390fd5b6001600160a01b038316600090815260086020526040902061051a9083611128565b9392505050565b61052b338261121f565b50565b6001600160a01b03811660009081526008602052604081205461055090610c17565b92915050565b610561308383610e57565b5050565b6001600160a01b038116600090815260056020526040812054610550565b60004382106105d45760405162461bcd60e51b815260206004820152601f60248201527f4552433230566f7465733a20626c6f636b206e6f7420796574206d696e65640060448201526064016104ef565b610550600983611128565b6060600480546103b290611bdf565b6001600160a01b0381166000908152600860205260408120548015610662576001600160a01b0383166000908152600860205260409020610630600183611c42565b8154811061064057610640611c59565b60009182526020909120015464010000000090046001600160e01b0316610665565b60005b6001600160e01b03169392505050565b600033816106838286610998565b9050838110156106e35760405162461bcd60e51b815260206004820152602560248201527f45524332303a2064656372656173656420616c6c6f77616e63652062656c6f77604482015264207a65726f60d81b60648201526084016104ef565b6104668286868403610cbf565b600033610443818585610e57565b8342111561074e5760405162461bcd60e51b815260206004820152601d60248201527f4552433230566f7465733a207369676e6174757265206578706972656400000060448201526064016104ef565b604080517fe48329057bfd03d55e49b547132e39cffd9c1820ad7b9d4c5307691425d15adf60208201526001600160a01b0388169181019190915260608101869052608081018590526000906107c8906107c09060a00160405160208183030381529060405280519060200120611298565b8585856112e6565b90506107d38161130e565b86146108215760405162461bcd60e51b815260206004820152601960248201527f4552433230566f7465733a20696e76616c6964206e6f6e63650000000000000060448201526064016104ef565b61082b818861121f565b50505050505050565b834211156108845760405162461bcd60e51b815260206004820152601d60248201527f45524332305065726d69743a206578706972656420646561646c696e6500000060448201526064016104ef565b60007f6e71edae12b1b97f4d1f60370fef10105fa2faae0126114a169c64845d6126c98888886108b38c61130e565b6040805160208101969096526001600160a01b0394851690860152929091166060840152608083015260a082015260c0810186905260e001604051602081830303815290604052805190602001209050600061090e82611298565b9050600061091e828787876112e6565b9050896001600160a01b0316816001600160a01b0316146109815760405162461bcd60e51b815260206004820152601e60248201527f45524332305065726d69743a20696e76616c6964207369676e6174757265000060448201526064016104ef565b61098c8a8a8a610cbf565b50505050505050505050565b6001600160a01b03918216600090815260016020908152604080832093909416825291909152205490565b60408051808201909152600080825260208201526001600160a01b0383166000908152600860205260409020805463ffffffff8416908110610a0757610a07611c59565b60009182526020918290206040805180820190915291015463ffffffff8116825264010000000090046001600160e01b0316918101919091529392505050565b610a518282610ad7565b6002546001600160e01b031015610ac35760405162461bcd60e51b815260206004820152603060248201527f4552433230566f7465733a20746f74616c20737570706c79207269736b73206f60448201526f766572666c6f77696e6720766f74657360801b60648201526084016104ef565b610ad16009610b9e83611336565b50505050565b6001600160a01b038216610b2d5760405162461bcd60e51b815260206004820152601f60248201527f45524332303a206d696e7420746f20746865207a65726f20616464726573730060448201526064016104ef565b8060026000828254610b3f9190611c2a565b90915550506001600160a01b038216600081815260208181526040808320805486019055518481527fddf252ad1be2c89b69c2b068fc378daa952ba7f163c4a11628f55a4df523b3ef910160405180910390a36105616000838361148a565b600061051a8284611c2a565b60006001600160e01b03821115610c135760405162461bcd60e51b815260206004820152602760248201527f53616665436173743a2076616c756520646f65736e27742066697420696e20326044820152663234206269747360c81b60648201526084016104ef565b5090565b600063ffffffff821115610c135760405162461bcd60e51b815260206004820152602660248201527f53616665436173743a2076616c756520646f65736e27742066697420696e203360448201526532206269747360d01b60648201526084016104ef565b6001600160a01b03838116600090815260076020526040808220548584168352912054610cae92918216911683611495565b505050565b600061051a8284611c42565b6001600160a01b038316610d215760405162461bcd60e51b8152602060048201526024808201527f45524332303a20617070726f76652066726f6d20746865207a65726f206164646044820152637265737360e01b60648201526084016104ef565b6001600160a01b038216610d825760405162461bcd60e51b815260206004820152602260248201527f45524332303a20617070726f766520746f20746865207a65726f206164647265604482015261737360f01b60648201526084016104ef565b6001600160a01b0383811660008181526001602090815260408083209487168084529482529182902085905590518481527f8c5be1e5ebec7d5bd14f71427d1e84f3dd0314c0f7b2291e5b200ac8c7c3b925910160405180910390a3505050565b6000610def8484610998565b90506000198114610ad15781811015610e4a5760405162461bcd60e51b815260206004820152601d60248201527f45524332303a20696e73756666696369656e7420616c6c6f77616e636500000060448201526064016104ef565b610ad18484848403610cbf565b6001600160a01b038316610ebb5760405162461bcd60e51b815260206004820152602560248201527f45524332303a207472616e736665722066726f6d20746865207a65726f206164604482015264647265737360d81b60648201526084016104ef565b6001600160a01b038216610f1d5760405162461bcd60e51b815260206004820152602360248201527f45524332303a207472616e7366657220746f20746865207a65726f206164647260448201526265737360e81b60648201526084016104ef565b6001600160a01b03831660009081526020819052604090205481811015610f955760405162461bcd60e51b815260206004820152602660248201527f45524332303a207472616e7366657220616d6f756e7420657863656564732062604482015265616c616e636560d01b60648201526084016104ef565b6001600160a01b03848116600081815260208181526040808320878703905593871680835291849020805487019055925185815290927fddf252ad1be2c89b69c2b068fc378daa952ba7f163c4a11628f55a4df523b3ef910160405180910390a3610ad184848461148a565b6000306001600160a01b037f00000000000000000000000000000000000000000000000000000000000000001614801561105a57507f000000000000000000000000000000000000000000000000000000000000000046145b1561108457507f000000000000000000000000000000000000000000000000000000000000000090565b50604080517f00000000000000000000000000000000000000000000000000000000000000006020808301919091527f0000000000000000000000000000000000000000000000000000000000000000828401527f000000000000000000000000000000000000000000000000000000000000000060608301524660808301523060a0808401919091528351808403909101815260c0909201909252805191012090565b815460009081816005811115611182576000611143846115d2565b61114d9085611c42565b600088815260209020909150869082015463ffffffff16111561117257809150611180565b61117d816001611c2a565b92505b505b808210156111cf57600061119683836116b7565b600088815260209020909150869082015463ffffffff1611156111bb578091506111c9565b6111c6816001611c2a565b92505b50611182565b8015611209576111f2866111e4600184611c42565b600091825260209091200190565b5464010000000090046001600160e01b031661120c565b60005b6001600160e01b03169695505050505050565b6001600160a01b038281166000818152600760208181526040808420805485845282862054949093528787166001600160a01b03198416811790915590519190951694919391928592917f3134e8a2e6d97e929a7e54011ea5485d7d196dd5f0ba4d4ef95803e8e3fc257f9190a4610ad1828483611495565b60006105506112a5611001565b8360405161190160f01b6020820152602281018390526042810182905260009060620160405160208183030381529060405280519060200120905092915050565b60008060006112f7878787876116d2565b9150915061130481611796565b5095945050505050565b6001600160a01b03811660009081526005602052604090208054600181018255905b50919050565b8254600090819081811561138357611353876111e4600185611c42565b60408051808201909152905463ffffffff8116825264010000000090046001600160e01b03166020820152611398565b60408051808201909152600080825260208201525b905080602001516001600160e01b031693506113b884868863ffffffff16565b92506000821180156113d05750805163ffffffff1643145b15611415576113de83610baa565b6113ed886111e4600186611c42565b80546001600160e01b03929092166401000000000263ffffffff909216919091179055611480565b86604051806040016040528061142a43610c17565b63ffffffff16815260200161143e86610baa565b6001600160e01b0390811690915282546001810184556000938452602093849020835194909301519091166401000000000263ffffffff909316929092179101555b5050935093915050565b610cae838383610c7c565b816001600160a01b0316836001600160a01b0316141580156114b75750600081115b15610cae576001600160a01b03831615611545576001600160a01b038316600090815260086020526040812081906114f290610cb385611336565b91509150846001600160a01b03167fdec2bacdd2f05b59de34da9b523dff8be42e5e38e818c82fdb0bae774387a724838360405161153a929190918252602082015260400190565b60405180910390a250505b6001600160a01b03821615610cae576001600160a01b0382166000908152600860205260408120819061157b90610b9e85611336565b91509150836001600160a01b03167fdec2bacdd2f05b59de34da9b523dff8be42e5e38e818c82fdb0bae774387a72483836040516115c3929190918252602082015260400190565b60405180910390a25050505050565b6000816115e157506000919050565b600060016115ee846118e4565b901c6001901b9050600181848161160757611607611c6f565b048201901c9050600181848161161f5761161f611c6f565b048201901c9050600181848161163757611637611c6f565b048201901c9050600181848161164f5761164f611c6f565b048201901c9050600181848161166757611667611c6f565b048201901c9050600181848161167f5761167f611c6f565b048201901c9050600181848161169757611697611c6f565b048201901c905061051a818285816116b1576116b1611c6f565b04611978565b60006116c66002848418611c85565b61051a90848416611c2a565b6000807f7fffffffffffffffffffffffffffffff5d576e7357a4501ddfe92f46681b20a0831115611709575060009050600361178d565b6040805160008082526020820180845289905260ff881692820192909252606081018690526080810185905260019060a0016020604051602081039080840390855afa15801561175d573d6000803e3d6000fd5b5050604051601f1901519150506001600160a01b0381166117865760006001925092505061178d565b9150600090505b94509492505050565b60008160048111156117aa576117aa611ca7565b14156117b35750565b60018160048111156117c7576117c7611ca7565b14156118155760405162461bcd60e51b815260206004820152601860248201527f45434453413a20696e76616c6964207369676e6174757265000000000000000060448201526064016104ef565b600281600481111561182957611829611ca7565b14156118775760405162461bcd60e51b815260206004820152601f60248201527f45434453413a20696e76616c6964207369676e6174757265206c656e6774680060448201526064016104ef565b600381600481111561188b5761188b611ca7565b141561052b5760405162461bcd60e51b815260206004820152602260248201527f45434453413a20696e76616c6964207369676e6174757265202773272076616c604482015261756560f01b60648201526084016104ef565b600080608083901c156118f957608092831c92015b604083901c1561190b57604092831c92015b602083901c1561191d57602092831c92015b601083901c1561192f57601092831c92015b600883901c1561194157600892831c92015b600483901c1561195357600492831c92015b600283901c1561196557600292831c92015b600183901c156105505760010192915050565b6000818310611987578161051a565b5090919050565b600060208083528351808285015260005b818110156119bb5785810183015185820160400152820161199f565b818111156119cd576000604083870101525b50601f01601f1916929092016040019392505050565b80356001600160a01b03811681146119fa57600080fd5b919050565b60008060408385031215611a1257600080fd5b611a1b836119e3565b946020939093013593505050565b600080600060608486031215611a3e57600080fd5b611a47846119e3565b9250611a55602085016119e3565b9150604084013590509250925092565b600060208284031215611a7757600080fd5b61051a826119e3565b600060208284031215611a9257600080fd5b5035919050565b803560ff811681146119fa57600080fd5b60008060008060008060c08789031215611ac357600080fd5b611acc876119e3565b95506020870135945060408701359350611ae860608801611a99565b92506080870135915060a087013590509295509295509295565b600080600080600080600060e0888a031215611b1d57600080fd5b611b26886119e3565b9650611b34602089016119e3565b95506040880135945060608801359350611b5060808901611a99565b925060a0880135915060c0880135905092959891949750929550565b60008060408385031215611b7f57600080fd5b611b88836119e3565b9150611b96602084016119e3565b90509250929050565b60008060408385031215611bb257600080fd5b611bbb836119e3565b9150602083013563ffffffff81168114611bd457600080fd5b809150509250929050565b600181811c90821680611bf357607f821691505b6020821081141561133057634e487b7160e01b600052602260045260246000fd5b634e487b7160e01b600052601160045260246000fd5b60008219821115611c3d57611c3d611c14565b500190565b600082821015611c5457611c54611c14565b500390565b634e487b7160e01b600052603260045260246000fd5b634e487b7160e01b600052601260045260246000fd5b600082611ca257634e487b7160e01b600052601260045260246000fd5b500490565b634e487b7160e01b600052602160045260246000fdfea264697066735822122088fe43203294a29e3b7de6b544fc2a91a15edc2a05d6c3b6d4c1171b54af58c564736f6c63430008090033dec2bacdd2f05b59de34da9b523dff8be42e5e38e818c82fdb0bae774387a724",
  "linkReferences": {},
  "deployedLinkReferences": {}
}