{
  "_format": "hh-sol-artifact-1",
  "contractName": "StationRegistry",
  "sourceName": "contracts/StationRegistry.sol",
  "abi": [
    {
      "inputs": [
        {
          "internalType": "uint256",
          "name": "_listingFee",
          "type": "uint256"
        }
      ],
      "stateMutability": "nonpayable",
      "type": "constructor"
    },
    {
      "anonymous": false,
      "inputs": [
        {
          "indexed": false,
          "internalType": "address",
          "name": "owner",
          "type": "address"
        },
        {
          "indexed": false,
          "internalType": "string",
          "name": "name",
          "type": "string"
        },
        {
          "indexed": false,
          "internalType": "string",
          "name": "metadata",
          "type": "string"
        },
        {
          "indexed": false,
          "internalType": "uint256",
          "name": "proposalId",
          "type": "uint256"
        },
        {
          "indexed": false,
          "internalType": "uint256",
          "name": "stationId",
          "type": "uint256"
        },
        {
          "indexed": false,
          "internalType": "uint256",
          "name": "chargingFee",
          "type": "uint256"
        }
      ],
      "name": "ChargingStationAdded",
      "type": "event"
    },
    {
      "anonymous": false,
      "inputs": [
        {
          "indexed": false,
          "internalType": "uint256",
          "name": "stationId",
          "type": "uint256"
        }
      ],
      "name": "ChargingStationRemoved",
      "type": "event"
    },
    {
      "anonymous": false,
      "inputs": [
        {
          "indexed": true,
          "internalType": "address",
          "name": "previousOwner",
          "type": "address"
        },
        {
          "indexed": true,
          "internalType": "address",
          "name": "newOwner",
          "type": "address"
        }
      ],
      "name": "OwnershipTransferred",
      "type": "event"
    },
    {
      "inputs": [],
      "name": "_stationIdCounter",
      "outputs": [
        {
          "internalType": "uint256",
          "name": "_value",
          "type": "uint256"
        }
      ],
      "stateMutability": "view",
      "type": "function"
    },
    {
      "inputs": [
        {
          "internalType": "address",
          "name": "_owner",
          "type": "address"
        },
        {
          "internalType": "string",
          "name": "_name",
          "type": "string"
        },
        {
          "internalType": "uint256",
          "name": "_proposalId",
          "type": "uint256"
        },
        {
          "internalType": "string",
          "name": "_metadata",
          "type": "string"
        },
        {
          "internalType": "uint256",
          "name": "_chargingFee",
          "type": "uint256"
        }
      ],
      "name": "addChargingStation",
      "outputs": [
        {
          "internalType": "uint256",
          "name": "",
          "type": "uint256"
        }
      ],
      "stateMutability": "payable",
      "type": "function"
    },
    {
      "inputs": [
        {
          "internalType": "uint256",
          "name": "",
          "type": "uint256"
        }
      ],
      "name": "chargingStationsRegistry",
      "outputs": [
        {
          "internalType": "address",
          "name": "owner",
          "type": "address"
        },
        {
          "internalType": "string",
          "name": "name",
          "type": "string"
        },
        {
          "internalType": "string",
          "name": "metadata",
          "type": "string"
        },
        {
          "internalType": "uint256",
          "name": "proposalId",
          "type": "uint256"
        },
        {
          "internalType": "uint256",
          "name": "stationId",
          "type": "uint256"
        },
        {
          "internalType": "uint256",
          "name": "chargingFee",
          "type": "uint256"
        }
      ],
      "stateMutability": "view",
      "type": "function"
    },
    {
      "inputs": [],
      "name": "electraToken",
      "outputs": [
        {
          "internalType": "contract ElectraToken",
          "name": "",
          "type": "address"
        }
      ],
      "stateMutability": "view",
      "type": "function"
    },
    {
      "inputs": [
        {
          "internalType": "uint256",
          "name": "_stationId",
          "type": "uint256"
        }
      ],
      "name": "getChargingFee",
      "outputs": [
        {
          "internalType": "uint256",
          "name": "",
          "type": "uint256"
        }
      ],
      "stateMutability": "view",
      "type": "function"
    },
    {
      "inputs": [
        {
          "internalType": "uint256",
          "name": "_stationId",
          "type": "uint256"
        }
      ],
      "name": "getStation",
      "outputs": [
        {
          "components": [
            {
              "internalType": "address",
              "name": "owner",
              "type": "address"
            },
            {
              "internalType": "string",
              "name": "name",
              "type": "string"
            },
            {
              "internalType": "string",
              "name": "metadata",
              "type": "string"
            },
            {
              "internalType": "uint256",
              "name": "proposalId",
              "type": "uint256"
            },
            {
              "internalType": "uint256",
              "name": "stationId",
              "type": "uint256"
            },
            {
              "internalType": "uint256",
              "name": "chargingFee",
              "type": "uint256"
            }
          ],
          "internalType": "struct StationRegistry.ChargingStation",
          "name": "",
          "type": "tuple"
        }
      ],
      "stateMutability": "view",
      "type": "function"
    },
    {
      "inputs": [
        {
          "internalType": "uint256",
          "name": "_stationId",
          "type": "uint256"
        }
      ],
      "name": "getStationOwner",
      "outputs": [
        {
          "internalType": "address",
          "name": "",
          "type": "address"
        }
      ],
      "stateMutability": "view",
      "type": "function"
    },
    {
      "inputs": [],
      "name": "listingFee",
      "outputs": [
        {
          "internalType": "uint256",
          "name": "",
          "type": "uint256"
        }
      ],
      "stateMutability": "view",
      "type": "function"
    },
    {
      "inputs": [],
      "name": "owner",
      "outputs": [
        {
          "internalType": "address",
          "name": "",
          "type": "address"
        }
      ],
      "stateMutability": "view",
      "type": "function"
    },
    {
      "inputs": [
        {
          "internalType": "uint256",
          "name": "_stationId",
          "type": "uint256"
        }
      ],
      "name": "removeChargingStation",
      "outputs": [],
      "stateMutability": "nonpayable",
      "type": "function"
    },
    {
      "inputs": [],
      "name": "renounceOwnership",
      "outputs": [],
      "stateMutability": "nonpayable",
      "type": "function"
    },
    {
      "inputs": [
        {
          "internalType": "address",
          "name": "newOwner",
          "type": "address"
        }
      ],
      "name": "transferOwnership",
      "outputs": [],
      "stateMutability": "nonpayable",
      "type": "function"
    }
  ],
  "bytecode": "0x608060405234801561001057600080fd5b50604051610d59380380610d5983398101604081905261002f91610090565b61003833610040565b6003556100a9565b600080546001600160a01b038381166001600160a01b0319831681178455604051919092169283917f8be0079c531659141344cd1fd0a4f28419497f9722a3daafe3b4186f6b6457e09190a35050565b6000602082840312156100a257600080fd5b5051919050565b610ca1806100b86000396000f3fe6080604052600436106100a65760003560e01c806383e0116e1161006457806383e0116e146101875780638da5cb5b146101b9578063aa21cc20146101d7578063c78f90c81461020d578063eae8b92d14610224578063f2fde38b1461025457600080fd5b8062ea2f5a146100ab578063106e054d146100cd5780634020e51f14610103578063682f9286146101245780636a1b7ecc1461015c578063715018a614610172575b600080fd5b3480156100b757600080fd5b506100cb6100c6366004610998565b610274565b005b3480156100d957600080fd5b506100ed6100e8366004610998565b610363565b6040516100fa91906109fe565b60405180910390f35b610116610111366004610b33565b61051a565b6040519081526020016100fa565b34801561013057600080fd5b50600154610144906001600160a01b031681565b6040516001600160a01b0390911681526020016100fa565b34801561016857600080fd5b5061011660035481565b34801561017e57600080fd5b506100cb61063f565b34801561019357600080fd5b506101a76101a2366004610998565b610653565b6040516100fa96959493929190610bb9565b3480156101c557600080fd5b506000546001600160a01b0316610144565b3480156101e357600080fd5b506101446101f2366004610998565b6000908152600460205260409020546001600160a01b031690565b34801561021957600080fd5b506002546101169081565b34801561023057600080fd5b5061011661023f366004610998565b60009081526004602052604090206005015490565b34801561026057600080fd5b506100cb61026f366004610c0e565b6107a2565b61027c61081b565b6000818152600460205260409020546001600160a01b03166102de5760405162461bcd60e51b815260206004820152601660248201527514dd185d1a5bdb88191bd95cc81b9bdd08195e1a5cdd60521b60448201526064015b60405180910390fd5b600081815260046020526040812080546001600160a01b03191681559061030860018301826108c5565b6103166002830160006108c5565b50600060038201819055600482018190556005909101556040518181527f1d60f9a52a1a1a116daaf72bf44a8fde3be0d6b39a739d0100429049c683c1a09060200160405180910390a150565b6103a56040518060c0016040528060006001600160a01b0316815260200160608152602001606081526020016000815260200160008152602001600081525090565b600082815260046020908152604091829020825160c0810190935280546001600160a01b0316835260018101805491928401916103e190610c30565b80601f016020809104026020016040519081016040528092919081815260200182805461040d90610c30565b801561045a5780601f1061042f5761010080835404028352916020019161045a565b820191906000526020600020905b81548152906001019060200180831161043d57829003601f168201915b5050505050815260200160028201805461047390610c30565b80601f016020809104026020016040519081016040528092919081815260200182805461049f90610c30565b80156104ec5780601f106104c1576101008083540402835291602001916104ec565b820191906000526020600020905b8154815290600101906020018083116104cf57829003601f168201915b5050505050815260200160038201548152602001600482015481526020016005820154815250509050919050565b600061052461081b565b610532600280546001019055565b600061053d60025490565b6040805160c0810182526001600160a01b038a8116825260208083018b81528385018a9052606084018b90526080840186905260a0840189905260008681526004835294909420835181546001600160a01b031916931692909217825592518051949550919390926105b69260018501929101906108ff565b50604082015180516105d29160028401916020909101906108ff565b50606082015181600301556080820151816004015560a082015181600501559050507fb5db1930dcc62904ae702d6c2dfa7824607feb8df135da84b62389eef632577a87878688858860405161062d96959493929190610bb9565b60405180910390a19695505050505050565b61064761081b565b6106516000610875565b565b600460205260009081526040902080546001820180546001600160a01b03909216929161067f90610c30565b80601f01602080910402602001604051908101604052809291908181526020018280546106ab90610c30565b80156106f85780601f106106cd576101008083540402835291602001916106f8565b820191906000526020600020905b8154815290600101906020018083116106db57829003601f168201915b50505050509080600201805461070d90610c30565b80601f016020809104026020016040519081016040528092919081815260200182805461073990610c30565b80156107865780601f1061075b57610100808354040283529160200191610786565b820191906000526020600020905b81548152906001019060200180831161076957829003601f168201915b5050505050908060030154908060040154908060050154905086565b6107aa61081b565b6001600160a01b03811661080f5760405162461bcd60e51b815260206004820152602660248201527f4f776e61626c653a206e6577206f776e657220697320746865207a65726f206160448201526564647265737360d01b60648201526084016102d5565b61081881610875565b50565b6000546001600160a01b031633146106515760405162461bcd60e51b815260206004820181905260248201527f4f776e61626c653a2063616c6c6572206973206e6f7420746865206f776e657260448201526064016102d5565b600080546001600160a01b038381166001600160a01b0319831681178455604051919092169283917f8be0079c531659141344cd1fd0a4f28419497f9722a3daafe3b4186f6b6457e09190a35050565b5080546108d190610c30565b6000825580601f106108e1575050565b601f0160209004906000526020600020908101906108189190610983565b82805461090b90610c30565b90600052602060002090601f01602090048101928261092d5760008555610973565b82601f1061094657805160ff1916838001178555610973565b82800160010185558215610973579182015b82811115610973578251825591602001919060010190610958565b5061097f929150610983565b5090565b5b8082111561097f5760008155600101610984565b6000602082840312156109aa57600080fd5b5035919050565b6000815180845260005b818110156109d7576020818501810151868301820152016109bb565b818111156109e9576000602083870101525b50601f01601f19169290920160200192915050565b602080825282516001600160a01b03168282015282015160c06040830152600090610a2c60e08401826109b1565b90506040840151601f19848303016060850152610a4982826109b1565b91505060608401516080840152608084015160a084015260a084015160c08401528091505092915050565b80356001600160a01b0381168114610a8b57600080fd5b919050565b634e487b7160e01b600052604160045260246000fd5b600082601f830112610ab757600080fd5b813567ffffffffffffffff80821115610ad257610ad2610a90565b604051601f8301601f19908116603f01168101908282118183101715610afa57610afa610a90565b81604052838152866020858801011115610b1357600080fd5b836020870160208301376000602085830101528094505050505092915050565b600080600080600060a08688031215610b4b57600080fd5b610b5486610a74565b9450602086013567ffffffffffffffff80821115610b7157600080fd5b610b7d89838a01610aa6565b9550604088013594506060880135915080821115610b9a57600080fd5b50610ba788828901610aa6565b95989497509295608001359392505050565b6001600160a01b038716815260c060208201819052600090610bdd908301886109b1565b8281036040840152610bef81886109b1565b60608401969096525050608081019290925260a0909101529392505050565b600060208284031215610c2057600080fd5b610c2982610a74565b9392505050565b600181811c90821680610c4457607f821691505b60208210811415610c6557634e487b7160e01b600052602260045260246000fd5b5091905056fea264697066735822122022c4855d8911c676e6c5644cf681f5aa98dd10e8d59aa115c44fb5ff364ae5c464736f6c63430008090033",
  "linkReferences": {},
  "deployedLinkReferences": {}
}