{
  "_format": "hh-sol-artifact-1",
  "contractName": "VehicleLedger",
  "sourceName": "contracts/VehicleLedger.sol",
  "abi": [
    {
      "inputs": [
        {
          "internalType": "address",
          "name": "_electraTokenAddress",
          "type": "address"
        },
        {
          "internalType": "address",
          "name": "_stationRegistryAddress",
          "type": "address"
        }
      ],
      "stateMutability": "nonpayable",
      "type": "constructor"
    },
    {
      "anonymous": false,
      "inputs": [
        {
          "indexed": true,
          "internalType": "address",
          "name": "previousOwner",
          "type": "address"
        },
        {
          "indexed": true,
          "internalType": "address",
          "name": "newOwner",
          "type": "address"
        }
      ],
      "name": "OwnershipTransferred",
      "type": "event"
    },
    {
      "anonymous": false,
      "inputs": [
        {
          "indexed": false,
          "internalType": "string",
          "name": "vin",
          "type": "string"
        },
        {
          "indexed": false,
          "internalType": "uint256",
          "name": "amount",
          "type": "uint256"
        },
        {
          "indexed": false,
          "internalType": "uint256",
          "name": "blockNumber",
          "type": "uint256"
        }
      ],
      "name": "VehicleCharged",
      "type": "event"
    },
    {
      "anonymous": false,
      "inputs": [
        {
          "indexed": false,
          "internalType": "string",
          "name": "vin",
          "type": "string"
        },
        {
          "indexed": false,
          "internalType": "string",
          "name": "metadata",
          "type": "string"
        },
        {
          "indexed": false,
          "internalType": "uint256",
          "name": "blockNumber",
          "type": "uint256"
        }
      ],
      "name": "VehicleRegistered",
      "type": "event"
    },
    {
      "inputs": [
        {
          "internalType": "uint256",
          "name": "_stationId",
          "type": "uint256"
        },
        {
          "internalType": "string",
          "name": "_vin",
          "type": "string"
        }
      ],
      "name": "chargeVehicle",
      "outputs": [
        {
          "internalType": "uint256",
          "name": "",
          "type": "uint256"
        }
      ],
      "stateMutability": "nonpayable",
      "type": "function"
    },
    {
      "inputs": [],
      "name": "electraToken",
      "outputs": [
        {
          "internalType": "contract ElectraToken",
          "name": "",
          "type": "address"
        }
      ],
      "stateMutability": "view",
      "type": "function"
    },
    {
      "inputs": [
        {
          "internalType": "string",
          "name": "_vin",
          "type": "string"
        }
      ],
      "name": "getBalance",
      "outputs": [
        {
          "internalType": "uint256",
          "name": "",
          "type": "uint256"
        }
      ],
      "stateMutability": "view",
      "type": "function"
    },
    {
      "inputs": [
        {
          "internalType": "string",
          "name": "_vin",
          "type": "string"
        }
      ],
      "name": "getVehicle",
      "outputs": [
        {
          "components": [
            {
              "internalType": "string",
              "name": "vin",
              "type": "string"
            },
            {
              "internalType": "string",
              "name": "metadata",
              "type": "string"
            },
            {
              "internalType": "uint256",
              "name": "balance",
              "type": "uint256"
            }
          ],
          "internalType": "struct VehicleLedger.Vehicle",
          "name": "",
          "type": "tuple"
        }
      ],
      "stateMutability": "view",
      "type": "function"
    },
    {
      "inputs": [],
      "name": "owner",
      "outputs": [
        {
          "internalType": "address",
          "name": "",
          "type": "address"
        }
      ],
      "stateMutability": "view",
      "type": "function"
    },
    {
      "inputs": [
        {
          "internalType": "string",
          "name": "_vin",
          "type": "string"
        },
        {
          "internalType": "string",
          "name": "_metadata",
          "type": "string"
        }
      ],
      "name": "registerVehicle",
      "outputs": [],
      "stateMutability": "nonpayable",
      "type": "function"
    },
    {
      "inputs": [],
      "name": "renounceOwnership",
      "outputs": [],
      "stateMutability": "nonpayable",
      "type": "function"
    },
    {
      "inputs": [],
      "name": "stationRegistry",
      "outputs": [
        {
          "internalType": "contract StationRegistry",
          "name": "",
          "type": "address"
        }
      ],
      "stateMutability": "view",
      "type": "function"
    },
    {
      "inputs": [
        {
          "internalType": "string",
          "name": "_vin",
          "type": "string"
        }
      ],
      "name": "topUpBalance",
      "outputs": [
        {
          "internalType": "uint256",
          "name": "",
          "type": "uint256"
        }
      ],
      "stateMutability": "payable",
      "type": "function"
    },
    {
      "inputs": [
        {
          "internalType": "address",
          "name": "newOwner",
          "type": "address"
        }
      ],
      "name": "transferOwnership",
      "outputs": [],
      "stateMutability": "nonpayable",
      "type": "function"
    }
  ],
  "bytecode": "0x608060405234801561001057600080fd5b50604051610f6e380380610f6e83398101604081905261002f916100d5565b61003833610069565b600180546001600160a01b039384166001600160a01b03199182161790915560028054929093169116179055610108565b600080546001600160a01b038381166001600160a01b0319831681178455604051919092169283917f8be0079c531659141344cd1fd0a4f28419497f9722a3daafe3b4186f6b6457e09190a35050565b80516001600160a01b03811681146100d057600080fd5b919050565b600080604083850312156100e857600080fd5b6100f1836100b9565b91506100ff602084016100b9565b90509250929050565b610e57806101176000396000f3fe6080604052600436106100915760003560e01c8063682f928611610059578063682f92861461014f578063715018a6146101875780638da5cb5b1461019c57806394bda0e0146101ba578063f2fde38b146101da57600080fd5b8063047fd579146100965780631922d6fd146100cc57806324afaca3146100ed5780633a51d2461461010d5780634f2495171461012d575b600080fd5b3480156100a257600080fd5b506100b66100b1366004610b31565b6101fa565b6040516100c39190610bca565b60405180910390f35b6100df6100da366004610b31565b61037c565b6040519081526020016100c3565b3480156100f957600080fd5b506100df610108366004610c1a565b610488565b34801561011957600080fd5b506100df610128366004610b31565b61076b565b34801561013957600080fd5b5061014d610148366004610c61565b610796565b005b34801561015b57600080fd5b5060015461016f906001600160a01b031681565b6040516001600160a01b0390911681526020016100c3565b34801561019357600080fd5b5061014d6108be565b3480156101a857600080fd5b506000546001600160a01b031661016f565b3480156101c657600080fd5b5060025461016f906001600160a01b031681565b3480156101e657600080fd5b5061014d6101f5366004610cd0565b6108d2565b61021e60405180606001604052806060815260200160608152602001600081525090565b60038260405161022e9190610cf4565b908152602001604051809103902060405180606001604052908160008201805461025790610d10565b80601f016020809104026020016040519081016040528092919081815260200182805461028390610d10565b80156102d05780601f106102a5576101008083540402835291602001916102d0565b820191906000526020600020905b8154815290600101906020018083116102b357829003601f168201915b505050505081526020016001820180546102e990610d10565b80601f016020809104026020016040519081016040528092919081815260200182805461031590610d10565b80156103625780601f1061033757610100808354040283529160200191610362565b820191906000526020600020905b81548152906001019060200180831161034557829003601f168201915b505050505081526020016002820154815250509050919050565b60008060038360405161038f9190610cf4565b908152602001604051809103902090508060000180546103ae90610d10565b1515905061040f5760405162461bcd60e51b8152602060048201526024808201527f56656869636c65207769746820746869732056494e20646f6573206e6f7420656044820152631e1a5cdd60e21b60648201526084015b60405180910390fd5b6000341161045f5760405162461bcd60e51b815260206004820152601d60248201527f416d6f756e74206d7573742062652067726561746572207468616e20300000006044820152606401610406565b6000349050808260020160008282546104789190610d61565b9091555050506002015492915050565b60008060038360405161049b9190610cf4565b908152602001604051809103902090508060000180546104ba90610d10565b151590506104ff5760405162461bcd60e51b815260206004820152601260248201527115925388191bd95cc81b9bdd08195e1a5cdd60721b6044820152606401610406565b60025460405163eae8b92d60e01b8152600481018690526000916001600160a01b03169063eae8b92d9060240160206040518083038186803b15801561054457600080fd5b505afa158015610558573d6000803e3d6000fd5b505050506040513d601f19601f8201168201806040525081019061057c9190610d79565b905080826002015410156105c95760405162461bcd60e51b8152602060048201526014602482015273496e73756666696369656e742062616c616e636560601b6044820152606401610406565b6002546040516305510e6160e51b8152600481018790526000916001600160a01b03169063aa21cc209060240160206040518083038186803b15801561060e57600080fd5b505afa158015610622573d6000803e3d6000fd5b505050506040513d601f19601f820116820180604052508101906106469190610d92565b6040519091506001600160a01b0382169083156108fc029084906000818181858888f1935050505015801561067f573d6000803e3d6000fd5b50600260009054906101000a90046001600160a01b03166001600160a01b0316636a1b7ecc6040518163ffffffff1660e01b815260040160206040518083038186803b1580156106ce57600080fd5b505afa1580156106e2573d6000803e3d6000fd5b505050506040513d601f19601f820116820180604052508101906107069190610d79565b8360020160008282546107199190610daf565b909155505060028301546040517f68c0582f07d1b13646b1fdb340795f090a88d27c9dda2b8a12af4a6c4ebb614c91610756918891904390610dc6565b60405180910390a15050600201549392505050565b600060038260405161077d9190610cf4565b9081526020016040518091039020600201549050919050565b6003826040516107a69190610cf4565b90815260405190819003602001902080546107c090610d10565b1590506108045760405162461bcd60e51b815260206004820152601260248201527156494e20616c72656164792065786973747360701b6044820152606401610406565b604051806060016040528083815260200182815260200160008152506003836040516108309190610cf4565b9081526020016040518091039020600082015181600001908051906020019061085a9291906109f5565b50602082810151805161087392600185019201906109f5565b50604091820151600290910155517f44147e92a20a608eedce5403f0e96629c7fd1fac80b642fbf7495479fdcfdebb906108b290849084904390610deb565b60405180910390a15050565b6108c661094b565b6108d060006109a5565b565b6108da61094b565b6001600160a01b03811661093f5760405162461bcd60e51b815260206004820152602660248201527f4f776e61626c653a206e6577206f776e657220697320746865207a65726f206160448201526564647265737360d01b6064820152608401610406565b610948816109a5565b50565b6000546001600160a01b031633146108d05760405162461bcd60e51b815260206004820181905260248201527f4f776e61626c653a2063616c6c6572206973206e6f7420746865206f776e65726044820152606401610406565b600080546001600160a01b038381166001600160a01b0319831681178455604051919092169283917f8be0079c531659141344cd1fd0a4f28419497f9722a3daafe3b4186f6b6457e09190a35050565b828054610a0190610d10565b90600052602060002090601f016020900481019282610a235760008555610a69565b82601f10610a3c57805160ff1916838001178555610a69565b82800160010185558215610a69579182015b82811115610a69578251825591602001919060010190610a4e565b50610a75929150610a79565b5090565b5b80821115610a755760008155600101610a7a565b634e487b7160e01b600052604160045260246000fd5b600082601f830112610ab557600080fd5b813567ffffffffffffffff80821115610ad057610ad0610a8e565b604051601f8301601f19908116603f01168101908282118183101715610af857610af8610a8e565b81604052838152866020858801011115610b1157600080fd5b836020870160208301376000602085830101528094505050505092915050565b600060208284031215610b4357600080fd5b813567ffffffffffffffff811115610b5a57600080fd5b610b6684828501610aa4565b949350505050565b60005b83811015610b89578181015183820152602001610b71565b83811115610b98576000848401525b50505050565b60008151808452610bb6816020860160208601610b6e565b601f01601f19169290920160200192915050565b602081526000825160606020840152610be66080840182610b9e565b90506020840151601f19848303016040850152610c038282610b9e565b915050604084015160608401528091505092915050565b60008060408385031215610c2d57600080fd5b82359150602083013567ffffffffffffffff811115610c4b57600080fd5b610c5785828601610aa4565b9150509250929050565b60008060408385031215610c7457600080fd5b823567ffffffffffffffff80821115610c8c57600080fd5b610c9886838701610aa4565b93506020850135915080821115610cae57600080fd5b50610c5785828601610aa4565b6001600160a01b038116811461094857600080fd5b600060208284031215610ce257600080fd5b8135610ced81610cbb565b9392505050565b60008251610d06818460208701610b6e565b9190910192915050565b600181811c90821680610d2457607f821691505b60208210811415610d4557634e487b7160e01b600052602260045260246000fd5b50919050565b634e487b7160e01b600052601160045260246000fd5b60008219821115610d7457610d74610d4b565b500190565b600060208284031215610d8b57600080fd5b5051919050565b600060208284031215610da457600080fd5b8151610ced81610cbb565b600082821015610dc157610dc1610d4b565b500390565b606081526000610dd96060830186610b9e565b60208301949094525060400152919050565b606081526000610dfe6060830186610b9e565b8281036020840152610e108186610b9e565b91505082604083015294935050505056fea26469706673582212204caeb0d3975a291ead613b5e3716b084d3d779572043459588c1149b744795c364736f6c63430008090033",
  "linkReferences": {},
  "deployedLinkReferences": {}
}