{
  "_format": "hh-sol-artifact-1",
  "contractName": "NetSpanToken",
  "sourceName": "contracts/NetSpanToken.sol",
  "abi": [
    {
      "inputs": [],
      "stateMutability": "nonpayable",
      "type": "constructor"
    },
    {
      "anonymous": false,
      "inputs": [
        {
          "indexed": true,
          "internalType": "address",
          "name": "owner",
          "type": "address"
        },
        {
          "indexed": true,
          "internalType": "address",
          "name": "spender",
          "type": "address"
        },
        {
          "indexed": false,
          "internalType": "uint256",
          "name": "value",
          "type": "uint256"
        }
      ],
      "name": "Approval",
      "type": "event"
    },
    {
      "anonymous": false,
      "inputs": [
        {
          "indexed": true,
          "internalType": "address",
          "name": "delegator",
          "type": "address"
        },
        {
          "indexed": true,
          "internalType": "address",
          "name": "fromDelegate",
          "type": "address"
        },
        {
          "indexed": true,
          "internalType": "address",
          "name": "toDelegate",
          "type": "address"
        }
      ],
      "name": "DelegateChanged",
      "type": "event"
    },
    {
      "anonymous": false,
      "inputs": [
        {
          "indexed": true,
          "internalType": "address",
          "name": "delegate",
          "type": "address"
        },
        {
          "indexed": false,
          "internalType": "uint256",
          "name": "previousBalance",
          "type": "uint256"
        },
        {
          "indexed": false,
          "internalType": "uint256",
          "name": "newBalance",
          "type": "uint256"
        }
      ],
      "name": "DelegateVotesChanged",
      "type": "event"
    },
    {
      "anonymous": false,
      "inputs": [
        {
          "indexed": true,
          "internalType": "address",
          "name": "previousOwner",
          "type": "address"
        },
        {
          "indexed": true,
          "internalType": "address",
          "name": "newOwner",
          "type": "address"
        }
      ],
      "name": "OwnershipTransferred",
      "type": "event"
    },
    {
      "anonymous": false,
      "inputs": [
        {
          "indexed": true,
          "internalType": "address",
          "name": "from",
          "type": "address"
        },
        {
          "indexed": true,
          "internalType": "address",
          "name": "to",
          "type": "address"
        },
        {
          "indexed": false,
          "internalType": "uint256",
          "name": "value",
          "type": "uint256"
        }
      ],
      "name": "Transfer",
      "type": "event"
    },
    {
      "inputs": [],
      "name": "DOMAIN_SEPARATOR",
      "outputs": [
        {
          "internalType": "bytes32",
          "name": "",
          "type": "bytes32"
        }
      ],
      "stateMutability": "view",
      "type": "function"
    },
    {
      "inputs": [
        {
          "internalType": "address",
          "name": "_newMember",
          "type": "address"
        },
        {
          "internalType": "uint256",
          "name": "_amount",
          "type": "uint256"
        }
      ],
      "name": "addNewDAOMember",
      "outputs": [],
      "stateMutability": "nonpayable",
      "type": "function"
    },
    {
      "inputs": [
        {
          "internalType": "address",
          "name": "owner",
          "type": "address"
        },
        {
          "internalType": "address",
          "name": "spender",
          "type": "address"
        }
      ],
      "name": "allowance",
      "outputs": [
        {
          "internalType": "uint256",
          "name": "",
          "type": "uint256"
        }
      ],
      "stateMutability": "view",
      "type": "function"
    },
    {
      "inputs": [
        {
          "internalType": "address",
          "name": "spender",
          "type": "address"
        },
        {
          "internalType": "uint256",
          "name": "amount",
          "type": "uint256"
        }
      ],
      "name": "approve",
      "outputs": [
        {
          "internalType": "bool",
          "name": "",
          "type": "bool"
        }
      ],
      "stateMutability": "nonpayable",
      "type": "function"
    },
    {
      "inputs": [
        {
          "internalType": "address",
          "name": "account",
          "type": "address"
        }
      ],
      "name": "balanceOf",
      "outputs": [
        {
          "internalType": "uint256",
          "name": "",
          "type": "uint256"
        }
      ],
      "stateMutability": "view",
      "type": "function"
    },
    {
      "inputs": [
        {
          "internalType": "address",
          "name": "account",
          "type": "address"
        },
        {
          "internalType": "uint32",
          "name": "pos",
          "type": "uint32"
        }
      ],
      "name": "checkpoints",
      "outputs": [
        {
          "components": [
            {
              "internalType": "uint32",
              "name": "fromBlock",
              "type": "uint32"
            },
            {
              "internalType": "uint224",
              "name": "votes",
              "type": "uint224"
            }
          ],
          "internalType": "struct ERC20Votes.Checkpoint",
          "name": "",
          "type": "tuple"
        }
      ],
      "stateMutability": "view",
      "type": "function"
    },
    {
      "inputs": [],
      "name": "decimals",
      "outputs": [
        {
          "internalType": "uint8",
          "name": "",
          "type": "uint8"
        }
      ],
      "stateMutability": "view",
      "type": "function"
    },
    {
      "inputs": [
        {
          "internalType": "address",
          "name": "spender",
          "type": "address"
        },
        {
          "internalType": "uint256",
          "name": "subtractedValue",
          "type": "uint256"
        }
      ],
      "name": "decreaseAllowance",
      "outputs": [
        {
          "internalType": "bool",
          "name": "",
          "type": "bool"
        }
      ],
      "stateMutability": "nonpayable",
      "type": "function"
    },
    {
      "inputs": [
        {
          "internalType": "address",
          "name": "delegatee",
          "type": "address"
        }
      ],
      "name": "delegate",
      "outputs": [],
      "stateMutability": "nonpayable",
      "type": "function"
    },
    {
      "inputs": [
        {
          "internalType": "address",
          "name": "delegatee",
          "type": "address"
        },
        {
          "internalType": "uint256",
          "name": "nonce",
          "type": "uint256"
        },
        {
          "internalType": "uint256",
          "name": "expiry",
          "type": "uint256"
        },
        {
          "internalType": "uint8",
          "name": "v",
          "type": "uint8"
        },
        {
          "internalType": "bytes32",
          "name": "r",
          "type": "bytes32"
        },
        {
          "internalType": "bytes32",
          "name": "s",
          "type": "bytes32"
        }
      ],
      "name": "delegateBySig",
      "outputs": [],
      "stateMutability": "nonpayable",
      "type": "function"
    },
    {
      "inputs": [
        {
          "internalType": "address",
          "name": "account",
          "type": "address"
        }
      ],
      "name": "delegates",
      "outputs": [
        {
          "internalType": "address",
          "name": "",
          "type": "address"
        }
      ],
      "stateMutability": "view",
      "type": "function"
    },
    {
      "inputs": [
        {
          "internalType": "address",
          "name": "to",
          "type": "address"
        },
        {
          "internalType": "uint256",
          "name": "amount",
          "type": "uint256"
        }
      ],
      "name": "faucet",
      "outputs": [],
      "stateMutability": "nonpayable",
      "type": "function"
    },
    {
      "inputs": [
        {
          "internalType": "uint256",
          "name": "blockNumber",
          "type": "uint256"
        }
      ],
      "name": "getPastTotalSupply",
      "outputs": [
        {
          "internalType": "uint256",
          "name": "",
          "type": "uint256"
        }
      ],
      "stateMutability": "view",
      "type": "function"
    },
    {
      "inputs": [
        {
          "internalType": "address",
          "name": "account",
          "type": "address"
        },
        {
          "internalType": "uint256",
          "name": "blockNumber",
          "type": "uint256"
        }
      ],
      "name": "getPastVotes",
      "outputs": [
        {
          "internalType": "uint256",
          "name": "",
          "type": "uint256"
        }
      ],
      "stateMutability": "view",
      "type": "function"
    },
    {
      "inputs": [
        {
          "internalType": "address",
          "name": "account",
          "type": "address"
        }
      ],
      "name": "getVotes",
      "outputs": [
        {
          "internalType": "uint256",
          "name": "",
          "type": "uint256"
        }
      ],
      "stateMutability": "view",
      "type": "function"
    },
    {
      "inputs": [
        {
          "internalType": "address",
          "name": "spender",
          "type": "address"
        },
        {
          "internalType": "uint256",
          "name": "addedValue",
          "type": "uint256"
        }
      ],
      "name": "increaseAllowance",
      "outputs": [
        {
          "internalType": "bool",
          "name": "",
          "type": "bool"
        }
      ],
      "stateMutability": "nonpayable",
      "type": "function"
    },
    {
      "inputs": [],
      "name": "name",
      "outputs": [
        {
          "internalType": "string",
          "name": "",
          "type": "string"
        }
      ],
      "stateMutability": "view",
      "type": "function"
    },
    {
      "inputs": [
        {
          "internalType": "address",
          "name": "owner",
          "type": "address"
        }
      ],
      "name": "nonces",
      "outputs": [
        {
          "internalType": "uint256",
          "name": "",
          "type": "uint256"
        }
      ],
      "stateMutability": "view",
      "type": "function"
    },
    {
      "inputs": [
        {
          "internalType": "address",
          "name": "account",
          "type": "address"
        }
      ],
      "name": "numCheckpoints",
      "outputs": [
        {
          "internalType": "uint32",
          "name": "",
          "type": "uint32"
        }
      ],
      "stateMutability": "view",
      "type": "function"
    },
    {
      "inputs": [],
      "name": "owner",
      "outputs": [
        {
          "internalType": "address",
          "name": "",
          "type": "address"
        }
      ],
      "stateMutability": "view",
      "type": "function"
    },
    {
      "inputs": [
        {
          "internalType": "address",
          "name": "owner",
          "type": "address"
        },
        {
          "internalType": "address",
          "name": "spender",
          "type": "address"
        },
        {
          "internalType": "uint256",
          "name": "value",
          "type": "uint256"
        },
        {
          "internalType": "uint256",
          "name": "deadline",
          "type": "uint256"
        },
        {
          "internalType": "uint8",
          "name": "v",
          "type": "uint8"
        },
        {
          "internalType": "bytes32",
          "name": "r",
          "type": "bytes32"
        },
        {
          "internalType": "bytes32",
          "name": "s",
          "type": "bytes32"
        }
      ],
      "name": "permit",
      "outputs": [],
      "stateMutability": "nonpayable",
      "type": "function"
    },
    {
      "inputs": [],
      "name": "renounceOwnership",
      "outputs": [],
      "stateMutability": "nonpayable",
      "type": "function"
    },
    {
      "inputs": [],
      "name": "s_maxSupply",
      "outputs": [
        {
          "internalType": "uint256",
          "name": "",
          "type": "uint256"
        }
      ],
      "stateMutability": "view",
      "type": "function"
    },
    {
      "inputs": [],
      "name": "symbol",
      "outputs": [
        {
          "internalType": "string",
          "name": "",
          "type": "string"
        }
      ],
      "stateMutability": "view",
      "type": "function"
    },
    {
      "inputs": [],
      "name": "totalSupply",
      "outputs": [
        {
          "internalType": "uint256",
          "name": "",
          "type": "uint256"
        }
      ],
      "stateMutability": "view",
      "type": "function"
    },
    {
      "inputs": [
        {
          "internalType": "address",
          "name": "",
          "type": "address"
        },
        {
          "internalType": "uint256",
          "name": "",
          "type": "uint256"
        }
      ],
      "name": "transfer",
      "outputs": [
        {
          "internalType": "bool",
          "name": "",
          "type": "bool"
        }
      ],
      "stateMutability": "pure",
      "type": "function"
    },
    {
      "inputs": [
        {
          "internalType": "address",
          "name": "",
          "type": "address"
        },
        {
          "internalType": "address",
          "name": "",
          "type": "address"
        },
        {
          "internalType": "uint256",
          "name": "",
          "type": "uint256"
        }
      ],
      "name": "transferFrom",
      "outputs": [
        {
          "internalType": "bool",
          "name": "",
          "type": "bool"
        }
      ],
      "stateMutability": "pure",
      "type": "function"
    },
    {
      "inputs": [
        {
          "internalType": "address",
          "name": "newOwner",
          "type": "address"
        }
      ],
      "name": "transferOwnership",
      "outputs": [],
      "stateMutability": "nonpayable",
      "type": "function"
    }
  ],
  "bytecode": "0x610140604052670de0b6b3a7640000600b553480156200001e57600080fd5b506040518060400160405280600c81526020017f4e65745370616e546f6b656e0000000000000000000000000000000000000000815250806040518060400160405280600181526020017f31000000000000000000000000000000000000000000000000000000000000008152506040518060400160405280600c81526020017f4e65745370616e546f6b656e00000000000000000000000000000000000000008152506040518060400160405280600381526020017f4e53540000000000000000000000000000000000000000000000000000000000815250816003908162000109919062000f29565b5080600490816200011b919062000f29565b50505060008280519060200120905060008280519060200120905060007f8b73c3c69bb8fe3d512ecc4cf759cc79239f7b179b0ffacaa9a75d522b39400f90508260e081815250508161010081815250504660a08181525050620001878184846200023b60201b60201c565b608081815250503073ffffffffffffffffffffffffffffffffffffffff1660c08173ffffffffffffffffffffffffffffffffffffffff1681525050806101208181525050505050505050620001f1620001e56200027760201b60201c565b6200027f60201b60201c565b62000213336002600b546200020791906200106e565b6200034560201b60201c565b62000235306002600b546200022991906200106e565b6200034560201b60201c565b6200147f565b600083838346306040516020016200025895949392919062001117565b6040516020818303038152906040528051906020012090509392505050565b600033905090565b6000600a60009054906101000a900473ffffffffffffffffffffffffffffffffffffffff16905081600a60006101000a81548173ffffffffffffffffffffffffffffffffffffffff021916908373ffffffffffffffffffffffffffffffffffffffff1602179055508173ffffffffffffffffffffffffffffffffffffffff168173ffffffffffffffffffffffffffffffffffffffff167f8be0079c531659141344cd1fd0a4f28419497f9722a3daafe3b4186f6b6457e060405160405180910390a35050565b6200035782826200035b60201b60201c565b5050565b6200036d82826200041460201b60201c565b6200037d6200058160201b60201c565b7bffffffffffffffffffffffffffffffffffffffffffffffffffffffff16620003ab620005a560201b60201c565b1115620003ef576040517f08c379a0000000000000000000000000000000000000000000000000000000008152600401620003e690620011fb565b60405180910390fd5b6200040e6009620005af60201b620010bd1783620005c760201b60201c565b50505050565b600073ffffffffffffffffffffffffffffffffffffffff168273ffffffffffffffffffffffffffffffffffffffff160362000486576040517f08c379a00000000000000000000000000000000000000000000000000000000081526004016200047d906200126d565b60405180910390fd5b6200049a60008383620008c560201b60201c565b8060026000828254620004ae91906200128f565b92505081905550806000808473ffffffffffffffffffffffffffffffffffffffff1673ffffffffffffffffffffffffffffffffffffffff168152602001908152602001600020600082825401925050819055508173ffffffffffffffffffffffffffffffffffffffff16600073ffffffffffffffffffffffffffffffffffffffff167fddf252ad1be2c89b69c2b068fc378daa952ba7f163c4a11628f55a4df523b3ef83604051620005619190620012ca565b60405180910390a36200057d60008383620008ca60201b60201c565b5050565b60007bffffffffffffffffffffffffffffffffffffffffffffffffffffffff905090565b6000600254905090565b60008183620005bf91906200128f565b905092915050565b6000806000858054905090506000808214620006a257620005fd87600184620005f19190620012e7565b620008e260201b60201c565b6040518060400160405290816000820160009054906101000a900463ffffffff1663ffffffff1663ffffffff1681526020016000820160049054906101000a90047bffffffffffffffffffffffffffffffffffffffffffffffffffffffff167bffffffffffffffffffffffffffffffffffffffffffffffffffffffff167bffffffffffffffffffffffffffffffffffffffffffffffffffffffff1681525050620006de565b6040518060400160405280600063ffffffff16815260200160007bffffffffffffffffffffffffffffffffffffffffffffffffffffffff168152505b905080602001517bffffffffffffffffffffffffffffffffffffffffffffffffffffffff1693506200071184868860201c565b92506000821180156200072d575043816000015163ffffffff16145b15620007bb576200074483620008f760201b60201c565b6200076488600185620007589190620012e7565b620008e260201b60201c565b60000160046101000a8154817bffffffffffffffffffffffffffffffffffffffffffffffffffffffff02191690837bffffffffffffffffffffffffffffffffffffffffffffffffffffffff160217905550620008bb565b866040518060400160405280620007d8436200096560201b60201c565b63ffffffff168152602001620007f486620008f760201b60201c565b7bffffffffffffffffffffffffffffffffffffffffffffffffffffffff168152509080600181540180825580915050600190039060005260206000200160009091909190915060008201518160000160006101000a81548163ffffffff021916908363ffffffff16021790555060208201518160000160046101000a8154817bffffffffffffffffffffffffffffffffffffffffffffffffffffffff02191690837bffffffffffffffffffffffffffffffffffffffffffffffffffffffff16021790555050505b5050935093915050565b505050565b620008dd838383620009bb60201b60201c565b505050565b60008260005281602060002001905092915050565b60007bffffffffffffffffffffffffffffffffffffffffffffffffffffffff80168211156200095d576040517f08c379a0000000000000000000000000000000000000000000000000000000008152600401620009549062001398565b60405180910390fd5b819050919050565b600063ffffffff8016821115620009b3576040517f08c379a0000000000000000000000000000000000000000000000000000000008152600401620009aa9062001430565b60405180910390fd5b819050919050565b620009ce83838362000a0660201b60201c565b62000a01620009e38462000a0b60201b60201c565b620009f48462000a0b60201b60201c565b8362000a7460201b60201c565b505050565b505050565b6000600760008373ffffffffffffffffffffffffffffffffffffffff1673ffffffffffffffffffffffffffffffffffffffff16815260200190815260200160002060009054906101000a900473ffffffffffffffffffffffffffffffffffffffff169050919050565b8173ffffffffffffffffffffffffffffffffffffffff168373ffffffffffffffffffffffffffffffffffffffff161415801562000ab15750600081115b1562000c9257600073ffffffffffffffffffffffffffffffffffffffff168373ffffffffffffffffffffffffffffffffffffffff161462000ba45760008062000b4b600860008773ffffffffffffffffffffffffffffffffffffffff1673ffffffffffffffffffffffffffffffffffffffff16815260200190815260200160002062000c9760201b620010d31785620005c760201b60201c565b915091508473ffffffffffffffffffffffffffffffffffffffff167fdec2bacdd2f05b59de34da9b523dff8be42e5e38e818c82fdb0bae774387a724838360405162000b9992919062001452565b60405180910390a250505b600073ffffffffffffffffffffffffffffffffffffffff168273ffffffffffffffffffffffffffffffffffffffff161462000c915760008062000c38600860008673ffffffffffffffffffffffffffffffffffffffff1673ffffffffffffffffffffffffffffffffffffffff168152602001908152602001600020620005af60201b620010bd1785620005c760201b60201c565b915091508373ffffffffffffffffffffffffffffffffffffffff167fdec2bacdd2f05b59de34da9b523dff8be42e5e38e818c82fdb0bae774387a724838360405162000c8692919062001452565b60405180910390a250505b5b505050565b6000818362000ca79190620012e7565b905092915050565b600081519050919050565b7f4e487b7100000000000000000000000000000000000000000000000000000000600052604160045260246000fd5b7f4e487b7100000000000000000000000000000000000000000000000000000000600052602260045260246000fd5b6000600282049050600182168062000d3157607f821691505b60208210810362000d475762000d4662000ce9565b5b50919050565b60008190508160005260206000209050919050565b60006020601f8301049050919050565b600082821b905092915050565b60006008830262000db17fffffffffffffffffffffffffffffffffffffffffffffffffffffffffffffffff8262000d72565b62000dbd868362000d72565b95508019841693508086168417925050509392505050565b6000819050919050565b6000819050919050565b600062000e0a62000e0462000dfe8462000dd5565b62000ddf565b62000dd5565b9050919050565b6000819050919050565b62000e268362000de9565b62000e3e62000e358262000e11565b84845462000d7f565b825550505050565b600090565b62000e5562000e46565b62000e6281848462000e1b565b505050565b5b8181101562000e8a5762000e7e60008262000e4b565b60018101905062000e68565b5050565b601f82111562000ed95762000ea38162000d4d565b62000eae8462000d62565b8101602085101562000ebe578190505b62000ed662000ecd8562000d62565b83018262000e67565b50505b505050565b600082821c905092915050565b600062000efe6000198460080262000ede565b1980831691505092915050565b600062000f19838362000eeb565b9150826002028217905092915050565b62000f348262000caf565b67ffffffffffffffff81111562000f505762000f4f62000cba565b5b62000f5c825462000d18565b62000f6982828562000e8e565b600060209050601f83116001811462000fa1576000841562000f8c578287015190505b62000f98858262000f0b565b86555062001008565b601f19841662000fb18662000d4d565b60005b8281101562000fdb5784890151825560018201915060208501945060208101905062000fb4565b8683101562000ffb578489015162000ff7601f89168262000eeb565b8355505b6001600288020188555050505b505050505050565b7f4e487b7100000000000000000000000000000000000000000000000000000000600052601260045260246000fd5b7f4e487b7100000000000000000000000000000000000000000000000000000000600052601160045260246000fd5b60006200107b8262000dd5565b9150620010888362000dd5565b9250826200109b576200109a62001010565b5b828204905092915050565b6000819050919050565b620010bb81620010a6565b82525050565b620010cc8162000dd5565b82525050565b600073ffffffffffffffffffffffffffffffffffffffff82169050919050565b6000620010ff82620010d2565b9050919050565b6200111181620010f2565b82525050565b600060a0820190506200112e6000830188620010b0565b6200113d6020830187620010b0565b6200114c6040830186620010b0565b6200115b6060830185620010c1565b6200116a608083018462001106565b9695505050505050565b600082825260208201905092915050565b7f4552433230566f7465733a20746f74616c20737570706c79207269736b73206f60008201527f766572666c6f77696e6720766f74657300000000000000000000000000000000602082015250565b6000620011e360308362001174565b9150620011f08262001185565b604082019050919050565b600060208201905081810360008301526200121681620011d4565b9050919050565b7f45524332303a206d696e7420746f20746865207a65726f206164647265737300600082015250565b600062001255601f8362001174565b915062001262826200121d565b602082019050919050565b60006020820190508181036000830152620012888162001246565b9050919050565b60006200129c8262000dd5565b9150620012a98362000dd5565b9250828201905080821115620012c457620012c36200103f565b5b92915050565b6000602082019050620012e16000830184620010c1565b92915050565b6000620012f48262000dd5565b9150620013018362000dd5565b92508282039050818111156200131c576200131b6200103f565b5b92915050565b7f53616665436173743a2076616c756520646f65736e27742066697420696e203260008201527f3234206269747300000000000000000000000000000000000000000000000000602082015250565b60006200138060278362001174565b91506200138d8262001322565b604082019050919050565b60006020820190508181036000830152620013b38162001371565b9050919050565b7f53616665436173743a2076616c756520646f65736e27742066697420696e203360008201527f3220626974730000000000000000000000000000000000000000000000000000602082015250565b60006200141860268362001174565b91506200142582620013ba565b604082019050919050565b600060208201905081810360008301526200144b8162001409565b9050919050565b6000604082019050620014696000830185620010c1565b620014786020830184620010c1565b9392505050565b60805160a05160c05160e0516101005161012051613c6a620014cf6000396000611368015260006113aa01526000611389015260006112be015260006113140152600061133d0152613c6a6000f3fe608060405234801561001057600080fd5b50600436106101c45760003560e01c80637b56c2b2116100f9578063a66cc92711610097578063d505accf11610071578063d505accf14610555578063dd62ed3e14610571578063f1127ed8146105a1578063f2fde38b146105d1576101c4565b8063a66cc927146104ed578063a9059cbb14610509578063c3cda52014610539576101c4565b80638e539e8c116100d35780638e539e8c1461043f57806395d89b411461046f5780639ab24eb01461048d578063a457c2d7146104bd576101c4565b80637b56c2b2146103d55780637ecebe00146103f15780638da5cb5b14610421576101c4565b80633a46b1a8116101665780635d641847116101405780635d6418471461034d5780636fcfff451461036b57806370a082311461039b578063715018a6146103cb576101c4565b80633a46b1a8146102d1578063587cde1e146103015780635c19a95c14610331576101c4565b806323b872dd116101a257806323b872dd14610235578063313ce567146102655780633644e5151461028357806339509351146102a1576101c4565b806306fdde03146101c9578063095ea7b3146101e757806318160ddd14610217575b600080fd5b6101d16105ed565b6040516101de9190612851565b60405180910390f35b61020160048036038101906101fc919061290c565b61067f565b60405161020e9190612967565b60405180910390f35b61021f6106a2565b60405161022c9190612991565b60405180910390f35b61024f600480360381019061024a91906129ac565b6106ac565b60405161025c9190612967565b60405180910390f35b61026d6106e9565b60405161027a9190612a1b565b60405180910390f35b61028b6106f2565b6040516102989190612a4f565b60405180910390f35b6102bb60048036038101906102b6919061290c565b610701565b6040516102c89190612967565b60405180910390f35b6102eb60048036038101906102e6919061290c565b610738565b6040516102f89190612991565b60405180910390f35b61031b60048036038101906103169190612a6a565b6107cc565b6040516103289190612aa6565b60405180910390f35b61034b60048036038101906103469190612a6a565b610835565b005b610355610849565b6040516103629190612991565b60405180910390f35b61038560048036038101906103809190612a6a565b61084f565b6040516103929190612ae0565b60405180910390f35b6103b560048036038101906103b09190612a6a565b6108a3565b6040516103c29190612991565b60405180910390f35b6103d36108eb565b005b6103ef60048036038101906103ea919061290c565b6108ff565b005b61040b60048036038101906104069190612a6a565b610917565b6040516104189190612991565b60405180910390f35b610429610967565b6040516104369190612aa6565b60405180910390f35b61045960048036038101906104549190612afb565b610991565b6040516104669190612991565b60405180910390f35b6104776109e7565b6040516104849190612851565b60405180910390f35b6104a760048036038101906104a29190612a6a565b610a79565b6040516104b49190612991565b60405180910390f35b6104d760048036038101906104d2919061290c565b610b8a565b6040516104e49190612967565b60405180910390f35b6105076004803603810190610502919061290c565b610c01565b005b610523600480360381019061051e919061290c565b610c20565b6040516105309190612967565b60405180910390f35b610553600480360381019061054e9190612b80565b610c5d565b005b61056f600480360381019061056a9190612c0d565b610d61565b005b61058b60048036038101906105869190612caf565b610ea3565b6040516105989190612991565b60405180910390f35b6105bb60048036038101906105b69190612d1b565b610f2a565b6040516105c89190612dd0565b60405180910390f35b6105eb60048036038101906105e69190612a6a565b61103a565b005b6060600380546105fc90612e1a565b80601f016020809104026020016040519081016040528092919081815260200182805461062890612e1a565b80156106755780601f1061064a57610100808354040283529160200191610675565b820191906000526020600020905b81548152906001019060200180831161065857829003601f168201915b5050505050905090565b60008061068a6110e9565b90506106978185856110f1565b600191505092915050565b6000600254905090565b60006040517f08c379a00000000000000000000000000000000000000000000000000000000081526004016106e090612e97565b60405180910390fd5b60006012905090565b60006106fc6112ba565b905090565b60008061070c6110e9565b905061072d81858561071e8589610ea3565b6107289190612ee6565b6110f1565b600191505092915050565b600043821061077c576040517f08c379a000000000000000000000000000000000000000000000000000000000815260040161077390612f66565b60405180910390fd5b6107c4600860008573ffffffffffffffffffffffffffffffffffffffff1673ffffffffffffffffffffffffffffffffffffffff168152602001908152602001600020836113d4565b905092915050565b6000600760008373ffffffffffffffffffffffffffffffffffffffff1673ffffffffffffffffffffffffffffffffffffffff16815260200190815260200160002060009054906101000a900473ffffffffffffffffffffffffffffffffffffffff169050919050565b6108466108406110e9565b82611525565b50565b600b5481565b600061089c600860008473ffffffffffffffffffffffffffffffffffffffff1673ffffffffffffffffffffffffffffffffffffffff1681526020019081526020016000208054905061163f565b9050919050565b60008060008373ffffffffffffffffffffffffffffffffffffffff1673ffffffffffffffffffffffffffffffffffffffff168152602001908152602001600020549050919050565b6108f3611692565b6108fd6000611710565b565b61090a3083836117d6565b61091382610835565b5050565b6000610960600560008473ffffffffffffffffffffffffffffffffffffffff1673ffffffffffffffffffffffffffffffffffffffff168152602001908152602001600020611a4c565b9050919050565b6000600a60009054906101000a900473ffffffffffffffffffffffffffffffffffffffff16905090565b60004382106109d5576040517f08c379a00000000000000000000000000000000000000000000000000000000081526004016109cc90612f66565b60405180910390fd5b6109e06009836113d4565b9050919050565b6060600480546109f690612e1a565b80601f0160208091040260200160405190810160405280929190818152602001828054610a2290612e1a565b8015610a6f5780601f10610a4457610100808354040283529160200191610a6f565b820191906000526020600020905b815481529060010190602001808311610a5257829003601f168201915b5050505050905090565b600080600860008473ffffffffffffffffffffffffffffffffffffffff1673ffffffffffffffffffffffffffffffffffffffff16815260200190815260200160002080549050905060008114610b6157600860008473ffffffffffffffffffffffffffffffffffffffff1673ffffffffffffffffffffffffffffffffffffffff168152602001908152602001600020600182610b159190612f86565b81548110610b2657610b25612fba565b5b9060005260206000200160000160049054906101000a90047bffffffffffffffffffffffffffffffffffffffffffffffffffffffff16610b64565b60005b7bffffffffffffffffffffffffffffffffffffffffffffffffffffffff16915050919050565b600080610b956110e9565b90506000610ba38286610ea3565b905083811015610be8576040517f08c379a0000000000000000000000000000000000000000000000000000000008152600401610bdf9061305b565b60405180910390fd5b610bf582868684036110f1565b60019250505092915050565b610c09611692565b610c138282611a5a565b610c1c82610835565b5050565b60006040517f08c379a0000000000000000000000000000000000000000000000000000000008152600401610c5490612e97565b60405180910390fd5b83421115610ca0576040517f08c379a0000000000000000000000000000000000000000000000000000000008152600401610c97906130c7565b60405180910390fd5b6000610d02610cfa7fe48329057bfd03d55e49b547132e39cffd9c1820ad7b9d4c5307691425d15adf898989604051602001610cdf94939291906130e7565b60405160208183030381529060405280519060200120611a68565b858585611a82565b9050610d0d81611aad565b8614610d4e576040517f08c379a0000000000000000000000000000000000000000000000000000000008152600401610d4590613178565b60405180910390fd5b610d588188611525565b50505050505050565b83421115610da4576040517f08c379a0000000000000000000000000000000000000000000000000000000008152600401610d9b906131e4565b60405180910390fd5b60007f6e71edae12b1b97f4d1f60370fef10105fa2faae0126114a169c64845d6126c9888888610dd38c611aad565b89604051602001610de996959493929190613204565b6040516020818303038152906040528051906020012090506000610e0c82611a68565b90506000610e1c82878787611a82565b90508973ffffffffffffffffffffffffffffffffffffffff168173ffffffffffffffffffffffffffffffffffffffff1614610e8c576040517f08c379a0000000000000000000000000000000000000000000000000000000008152600401610e83906132b1565b60405180910390fd5b610e978a8a8a6110f1565b50505050505050505050565b6000600160008473ffffffffffffffffffffffffffffffffffffffff1673ffffffffffffffffffffffffffffffffffffffff16815260200190815260200160002060008373ffffffffffffffffffffffffffffffffffffffff1673ffffffffffffffffffffffffffffffffffffffff16815260200190815260200160002054905092915050565b610f32612783565b600860008473ffffffffffffffffffffffffffffffffffffffff1673ffffffffffffffffffffffffffffffffffffffff1681526020019081526020016000208263ffffffff1681548110610f8957610f88612fba565b5b906000526020600020016040518060400160405290816000820160009054906101000a900463ffffffff1663ffffffff1663ffffffff1681526020016000820160049054906101000a90047bffffffffffffffffffffffffffffffffffffffffffffffffffffffff167bffffffffffffffffffffffffffffffffffffffffffffffffffffffff167bffffffffffffffffffffffffffffffffffffffffffffffffffffffff1681525050905092915050565b611042611692565b600073ffffffffffffffffffffffffffffffffffffffff168173ffffffffffffffffffffffffffffffffffffffff16036110b1576040517f08c379a00000000000000000000000000000000000000000000000000000000081526004016110a890613343565b60405180910390fd5b6110ba81611710565b50565b600081836110cb9190612ee6565b905092915050565b600081836110e19190612f86565b905092915050565b600033905090565b600073ffffffffffffffffffffffffffffffffffffffff168373ffffffffffffffffffffffffffffffffffffffff1603611160576040517f08c379a0000000000000000000000000000000000000000000000000000000008152600401611157906133d5565b60405180910390fd5b600073ffffffffffffffffffffffffffffffffffffffff168273ffffffffffffffffffffffffffffffffffffffff16036111cf576040517f08c379a00000000000000000000000000000000000000000000000000000000081526004016111c690613467565b60405180910390fd5b80600160008573ffffffffffffffffffffffffffffffffffffffff1673ffffffffffffffffffffffffffffffffffffffff16815260200190815260200160002060008473ffffffffffffffffffffffffffffffffffffffff1673ffffffffffffffffffffffffffffffffffffffff168152602001908152602001600020819055508173ffffffffffffffffffffffffffffffffffffffff168373ffffffffffffffffffffffffffffffffffffffff167f8c5be1e5ebec7d5bd14f71427d1e84f3dd0314c0f7b2291e5b200ac8c7c3b925836040516112ad9190612991565b60405180910390a3505050565b60007f000000000000000000000000000000000000000000000000000000000000000073ffffffffffffffffffffffffffffffffffffffff163073ffffffffffffffffffffffffffffffffffffffff1614801561133657507f000000000000000000000000000000000000000000000000000000000000000046145b15611363577f000000000000000000000000000000000000000000000000000000000000000090506113d1565b6113ce7f00000000000000000000000000000000000000000000000000000000000000007f00000000000000000000000000000000000000000000000000000000000000007f0000000000000000000000000000000000000000000000000000000000000000611b0b565b90505b90565b60008083805490509050600080829050600583111561144a5760006113f884611b45565b846114039190612f86565b9050856114108883611c3e565b60000160009054906101000a900463ffffffff1663ffffffff16111561143857809150611448565b6001816114459190612ee6565b92505b505b5b808210156114aa57600061145f8383611c53565b90508561146c8883611c3e565b60000160009054906101000a900463ffffffff1663ffffffff161115611494578091506114a4565b6001816114a19190612ee6565b92505b5061144b565b600081146114f9576114c8866001836114c39190612f86565b611c3e565b60000160049054906101000a90047bffffffffffffffffffffffffffffffffffffffffffffffffffffffff166114fc565b60005b7bffffffffffffffffffffffffffffffffffffffffffffffffffffffff16935050505092915050565b6000611530836107cc565b9050600061153d846108a3565b905082600760008673ffffffffffffffffffffffffffffffffffffffff1673ffffffffffffffffffffffffffffffffffffffff16815260200190815260200160002060006101000a81548173ffffffffffffffffffffffffffffffffffffffff021916908373ffffffffffffffffffffffffffffffffffffffff1602179055508273ffffffffffffffffffffffffffffffffffffffff168273ffffffffffffffffffffffffffffffffffffffff168573ffffffffffffffffffffffffffffffffffffffff167f3134e8a2e6d97e929a7e54011ea5485d7d196dd5f0ba4d4ef95803e8e3fc257f60405160405180910390a4611639828483611c79565b50505050565b600063ffffffff801682111561168a576040517f08c379a0000000000000000000000000000000000000000000000000000000008152600401611681906134f9565b60405180910390fd5b819050919050565b61169a6110e9565b73ffffffffffffffffffffffffffffffffffffffff166116b8610967565b73ffffffffffffffffffffffffffffffffffffffff161461170e576040517f08c379a000000000000000000000000000000000000000000000000000000000815260040161170590613565565b60405180910390fd5b565b6000600a60009054906101000a900473ffffffffffffffffffffffffffffffffffffffff16905081600a60006101000a81548173ffffffffffffffffffffffffffffffffffffffff021916908373ffffffffffffffffffffffffffffffffffffffff1602179055508173ffffffffffffffffffffffffffffffffffffffff168173ffffffffffffffffffffffffffffffffffffffff167f8be0079c531659141344cd1fd0a4f28419497f9722a3daafe3b4186f6b6457e060405160405180910390a35050565b600073ffffffffffffffffffffffffffffffffffffffff168373ffffffffffffffffffffffffffffffffffffffff1603611845576040517f08c379a000000000000000000000000000000000000000000000000000000000815260040161183c906135f7565b60405180910390fd5b600073ffffffffffffffffffffffffffffffffffffffff168273ffffffffffffffffffffffffffffffffffffffff16036118b4576040517f08c379a00000000000000000000000000000000000000000000000000000000081526004016118ab90613689565b60405180910390fd5b6118bf838383611e72565b60008060008573ffffffffffffffffffffffffffffffffffffffff1673ffffffffffffffffffffffffffffffffffffffff16815260200190815260200160002054905081811015611945576040517f08c379a000000000000000000000000000000000000000000000000000000000815260040161193c9061371b565b60405180910390fd5b8181036000808673ffffffffffffffffffffffffffffffffffffffff1673ffffffffffffffffffffffffffffffffffffffff16815260200190815260200160002081905550816000808573ffffffffffffffffffffffffffffffffffffffff1673ffffffffffffffffffffffffffffffffffffffff168152602001908152602001600020600082825401925050819055508273ffffffffffffffffffffffffffffffffffffffff168473ffffffffffffffffffffffffffffffffffffffff167fddf252ad1be2c89b69c2b068fc378daa952ba7f163c4a11628f55a4df523b3ef84604051611a339190612991565b60405180910390a3611a46848484611e77565b50505050565b600081600001549050919050565b611a648282611e87565b5050565b6000611a7b611a756112ba565b83611f14565b9050919050565b6000806000611a9387878787611f47565b91509150611aa081612029565b8192505050949350505050565b600080600560008473ffffffffffffffffffffffffffffffffffffffff1673ffffffffffffffffffffffffffffffffffffffff1681526020019081526020016000209050611afa81611a4c565b9150611b058161218f565b50919050565b60008383834630604051602001611b2695949392919061373b565b6040516020818303038152906040528051906020012090509392505050565b6000808203611b575760009050611c39565b60006001611b64846121a5565b901c6001901b90506001818481611b7e57611b7d61378e565b5b048201901c90506001818481611b9757611b9661378e565b5b048201901c90506001818481611bb057611baf61378e565b5b048201901c90506001818481611bc957611bc861378e565b5b048201901c90506001818481611be257611be161378e565b5b048201901c90506001818481611bfb57611bfa61378e565b5b048201901c90506001818481611c1457611c1361378e565b5b048201901c9050611c3581828581611c2f57611c2e61378e565b5b04612286565b9150505b919050565b60008260005281602060002001905092915050565b60006002828418611c6491906137bd565b828416611c719190612ee6565b905092915050565b8173ffffffffffffffffffffffffffffffffffffffff168373ffffffffffffffffffffffffffffffffffffffff1614158015611cb55750600081115b15611e6d57600073ffffffffffffffffffffffffffffffffffffffff168373ffffffffffffffffffffffffffffffffffffffff1614611d9357600080611d3c600860008773ffffffffffffffffffffffffffffffffffffffff1673ffffffffffffffffffffffffffffffffffffffff1681526020019081526020016000206110d38561229f565b915091508473ffffffffffffffffffffffffffffffffffffffff167fdec2bacdd2f05b59de34da9b523dff8be42e5e38e818c82fdb0bae774387a7248383604051611d889291906137ee565b60405180910390a250505b600073ffffffffffffffffffffffffffffffffffffffff168273ffffffffffffffffffffffffffffffffffffffff1614611e6c57600080611e15600860008673ffffffffffffffffffffffffffffffffffffffff1673ffffffffffffffffffffffffffffffffffffffff1681526020019081526020016000206110bd8561229f565b915091508373ffffffffffffffffffffffffffffffffffffffff167fdec2bacdd2f05b59de34da9b523dff8be42e5e38e818c82fdb0bae774387a7248383604051611e619291906137ee565b60405180910390a250505b5b505050565b505050565b611e8283838361256e565b505050565b611e918282612599565b611e996126ef565b7bffffffffffffffffffffffffffffffffffffffffffffffffffffffff16611ebf6106a2565b1115611f00576040517f08c379a0000000000000000000000000000000000000000000000000000000008152600401611ef790613889565b60405180910390fd5b611f0e60096110bd8361229f565b50505050565b60008282604051602001611f29929190613921565b60405160208183030381529060405280519060200120905092915050565b6000807f7fffffffffffffffffffffffffffffff5d576e7357a4501ddfe92f46681b20a08360001c1115611f82576000600391509150612020565b600060018787878760405160008152602001604052604051611fa79493929190613958565b6020604051602081039080840390855afa158015611fc9573d6000803e3d6000fd5b505050602060405103519050600073ffffffffffffffffffffffffffffffffffffffff168173ffffffffffffffffffffffffffffffffffffffff160361201757600060019250925050612020565b80600092509250505b94509492505050565b6000600481111561203d5761203c61399d565b5b8160048111156120505761204f61399d565b5b031561218c576001600481111561206a5761206961399d565b5b81600481111561207d5761207c61399d565b5b036120bd576040517f08c379a00000000000000000000000000000000000000000000000000000000081526004016120b490613a18565b60405180910390fd5b600260048111156120d1576120d061399d565b5b8160048111156120e4576120e361399d565b5b03612124576040517f08c379a000000000000000000000000000000000000000000000000000000000815260040161211b90613a84565b60405180910390fd5b600360048111156121385761213761399d565b5b81600481111561214b5761214a61399d565b5b0361218b576040517f08c379a000000000000000000000000000000000000000000000000000000000815260040161218290613b16565b60405180910390fd5b5b50565b6001816000016000828254019250508190555050565b600080600090506000608084901c11156121c757608083901c92506080810190505b6000604084901c11156121e257604083901c92506040810190505b6000602084901c11156121fd57602083901c92506020810190505b6000601084901c111561221857601083901c92506010810190505b6000600884901c111561223357600883901c92506008810190505b6000600484901c111561224e57600483901c92506004810190505b6000600284901c111561226957600283901c92506002810190505b6000600184901c111561227d576001810190505b80915050919050565b60008183106122955781612297565b825b905092915050565b600080600085805490509050600080821461236e576122ca876001846122c59190612f86565b611c3e565b6040518060400160405290816000820160009054906101000a900463ffffffff1663ffffffff1663ffffffff1681526020016000820160049054906101000a90047bffffffffffffffffffffffffffffffffffffffffffffffffffffffff167bffffffffffffffffffffffffffffffffffffffffffffffffffffffff167bffffffffffffffffffffffffffffffffffffffffffffffffffffffff16815250506123aa565b6040518060400160405280600063ffffffff16815260200160007bffffffffffffffffffffffffffffffffffffffffffffffffffffffff168152505b905080602001517bffffffffffffffffffffffffffffffffffffffffffffffffffffffff1693506123df84868863ffffffff16565b92506000821180156123fa575043816000015163ffffffff16145b156124745761240883612713565b61241e886001856124199190612f86565b611c3e565b60000160046101000a8154817bffffffffffffffffffffffffffffffffffffffffffffffffffffffff02191690837bffffffffffffffffffffffffffffffffffffffffffffffffffffffff160217905550612564565b8660405180604001604052806124894361163f565b63ffffffff16815260200161249d86612713565b7bffffffffffffffffffffffffffffffffffffffffffffffffffffffff168152509080600181540180825580915050600190039060005260206000200160009091909190915060008201518160000160006101000a81548163ffffffff021916908363ffffffff16021790555060208201518160000160046101000a8154817bffffffffffffffffffffffffffffffffffffffffffffffffffffffff02191690837bffffffffffffffffffffffffffffffffffffffffffffffffffffffff16021790555050505b5050935093915050565b61257983838361277e565b612594612585846107cc565b61258e846107cc565b83611c79565b505050565b600073ffffffffffffffffffffffffffffffffffffffff168273ffffffffffffffffffffffffffffffffffffffff1603612608576040517f08c379a00000000000000000000000000000000000000000000000000000000081526004016125ff90613b82565b60405180910390fd5b61261460008383611e72565b80600260008282546126269190612ee6565b92505081905550806000808473ffffffffffffffffffffffffffffffffffffffff1673ffffffffffffffffffffffffffffffffffffffff168152602001908152602001600020600082825401925050819055508173ffffffffffffffffffffffffffffffffffffffff16600073ffffffffffffffffffffffffffffffffffffffff167fddf252ad1be2c89b69c2b068fc378daa952ba7f163c4a11628f55a4df523b3ef836040516126d79190612991565b60405180910390a36126eb60008383611e77565b5050565b60007bffffffffffffffffffffffffffffffffffffffffffffffffffffffff905090565b60007bffffffffffffffffffffffffffffffffffffffffffffffffffffffff8016821115612776576040517f08c379a000000000000000000000000000000000000000000000000000000000815260040161276d90613c14565b60405180910390fd5b819050919050565b505050565b6040518060400160405280600063ffffffff16815260200160007bffffffffffffffffffffffffffffffffffffffffffffffffffffffff1681525090565b600081519050919050565b600082825260208201905092915050565b60005b838110156127fb5780820151818401526020810190506127e0565b60008484015250505050565b6000601f19601f8301169050919050565b6000612823826127c1565b61282d81856127cc565b935061283d8185602086016127dd565b61284681612807565b840191505092915050565b6000602082019050818103600083015261286b8184612818565b905092915050565b600080fd5b600073ffffffffffffffffffffffffffffffffffffffff82169050919050565b60006128a382612878565b9050919050565b6128b381612898565b81146128be57600080fd5b50565b6000813590506128d0816128aa565b92915050565b6000819050919050565b6128e9816128d6565b81146128f457600080fd5b50565b600081359050612906816128e0565b92915050565b6000806040838503121561292357612922612873565b5b6000612931858286016128c1565b9250506020612942858286016128f7565b9150509250929050565b60008115159050919050565b6129618161294c565b82525050565b600060208201905061297c6000830184612958565b92915050565b61298b816128d6565b82525050565b60006020820190506129a66000830184612982565b92915050565b6000806000606084860312156129c5576129c4612873565b5b60006129d3868287016128c1565b93505060206129e4868287016128c1565b92505060406129f5868287016128f7565b9150509250925092565b600060ff82169050919050565b612a15816129ff565b82525050565b6000602082019050612a306000830184612a0c565b92915050565b6000819050919050565b612a4981612a36565b82525050565b6000602082019050612a646000830184612a40565b92915050565b600060208284031215612a8057612a7f612873565b5b6000612a8e848285016128c1565b91505092915050565b612aa081612898565b82525050565b6000602082019050612abb6000830184612a97565b92915050565b600063ffffffff82169050919050565b612ada81612ac1565b82525050565b6000602082019050612af56000830184612ad1565b92915050565b600060208284031215612b1157612b10612873565b5b6000612b1f848285016128f7565b91505092915050565b612b31816129ff565b8114612b3c57600080fd5b50565b600081359050612b4e81612b28565b92915050565b612b5d81612a36565b8114612b6857600080fd5b50565b600081359050612b7a81612b54565b92915050565b60008060008060008060c08789031215612b9d57612b9c612873565b5b6000612bab89828a016128c1565b9650506020612bbc89828a016128f7565b9550506040612bcd89828a016128f7565b9450506060612bde89828a01612b3f565b9350506080612bef89828a01612b6b565b92505060a0612c0089828a01612b6b565b9150509295509295509295565b600080600080600080600060e0888a031215612c2c57612c2b612873565b5b6000612c3a8a828b016128c1565b9750506020612c4b8a828b016128c1565b9650506040612c5c8a828b016128f7565b9550506060612c6d8a828b016128f7565b9450506080612c7e8a828b01612b3f565b93505060a0612c8f8a828b01612b6b565b92505060c0612ca08a828b01612b6b565b91505092959891949750929550565b60008060408385031215612cc657612cc5612873565b5b6000612cd4858286016128c1565b9250506020612ce5858286016128c1565b9150509250929050565b612cf881612ac1565b8114612d0357600080fd5b50565b600081359050612d1581612cef565b92915050565b60008060408385031215612d3257612d31612873565b5b6000612d40858286016128c1565b9250506020612d5185828601612d06565b9150509250929050565b612d6481612ac1565b82525050565b60007bffffffffffffffffffffffffffffffffffffffffffffffffffffffff82169050919050565b612d9b81612d6a565b82525050565b604082016000820151612db76000850182612d5b565b506020820151612dca6020850182612d92565b50505050565b6000604082019050612de56000830184612da1565b92915050565b7f4e487b7100000000000000000000000000000000000000000000000000000000600052602260045260246000fd5b60006002820490506001821680612e3257607f821691505b602082108103612e4557612e44612deb565b5b50919050565b7f43616e6e6f74207472616e7366657220736f756c626f756e6420546f6b656e73600082015250565b6000612e816020836127cc565b9150612e8c82612e4b565b602082019050919050565b60006020820190508181036000830152612eb081612e74565b9050919050565b7f4e487b7100000000000000000000000000000000000000000000000000000000600052601160045260246000fd5b6000612ef1826128d6565b9150612efc836128d6565b9250828201905080821115612f1457612f13612eb7565b5b92915050565b7f4552433230566f7465733a20626c6f636b206e6f7420796574206d696e656400600082015250565b6000612f50601f836127cc565b9150612f5b82612f1a565b602082019050919050565b60006020820190508181036000830152612f7f81612f43565b9050919050565b6000612f91826128d6565b9150612f9c836128d6565b9250828203905081811115612fb457612fb3612eb7565b5b92915050565b7f4e487b7100000000000000000000000000000000000000000000000000000000600052603260045260246000fd5b7f45524332303a2064656372656173656420616c6c6f77616e63652062656c6f7760008201527f207a65726f000000000000000000000000000000000000000000000000000000602082015250565b60006130456025836127cc565b915061305082612fe9565b604082019050919050565b6000602082019050818103600083015261307481613038565b9050919050565b7f4552433230566f7465733a207369676e61747572652065787069726564000000600082015250565b60006130b1601d836127cc565b91506130bc8261307b565b602082019050919050565b600060208201905081810360008301526130e0816130a4565b9050919050565b60006080820190506130fc6000830187612a40565b6131096020830186612a97565b6131166040830185612982565b6131236060830184612982565b95945050505050565b7f4552433230566f7465733a20696e76616c6964206e6f6e636500000000000000600082015250565b60006131626019836127cc565b915061316d8261312c565b602082019050919050565b6000602082019050818103600083015261319181613155565b9050919050565b7f45524332305065726d69743a206578706972656420646561646c696e65000000600082015250565b60006131ce601d836127cc565b91506131d982613198565b602082019050919050565b600060208201905081810360008301526131fd816131c1565b9050919050565b600060c0820190506132196000830189612a40565b6132266020830188612a97565b6132336040830187612a97565b6132406060830186612982565b61324d6080830185612982565b61325a60a0830184612982565b979650505050505050565b7f45524332305065726d69743a20696e76616c6964207369676e61747572650000600082015250565b600061329b601e836127cc565b91506132a682613265565b602082019050919050565b600060208201905081810360008301526132ca8161328e565b9050919050565b7f4f776e61626c653a206e6577206f776e657220697320746865207a65726f206160008201527f6464726573730000000000000000000000000000000000000000000000000000602082015250565b600061332d6026836127cc565b9150613338826132d1565b604082019050919050565b6000602082019050818103600083015261335c81613320565b9050919050565b7f45524332303a20617070726f76652066726f6d20746865207a65726f2061646460008201527f7265737300000000000000000000000000000000000000000000000000000000602082015250565b60006133bf6024836127cc565b91506133ca82613363565b604082019050919050565b600060208201905081810360008301526133ee816133b2565b9050919050565b7f45524332303a20617070726f766520746f20746865207a65726f20616464726560008201527f7373000000000000000000000000000000000000000000000000000000000000602082015250565b60006134516022836127cc565b915061345c826133f5565b604082019050919050565b6000602082019050818103600083015261348081613444565b9050919050565b7f53616665436173743a2076616c756520646f65736e27742066697420696e203360008201527f3220626974730000000000000000000000000000000000000000000000000000602082015250565b60006134e36026836127cc565b91506134ee82613487565b604082019050919050565b60006020820190508181036000830152613512816134d6565b9050919050565b7f4f776e61626c653a2063616c6c6572206973206e6f7420746865206f776e6572600082015250565b600061354f6020836127cc565b915061355a82613519565b602082019050919050565b6000602082019050818103600083015261357e81613542565b9050919050565b7f45524332303a207472616e736665722066726f6d20746865207a65726f20616460008201527f6472657373000000000000000000000000000000000000000000000000000000602082015250565b60006135e16025836127cc565b91506135ec82613585565b604082019050919050565b60006020820190508181036000830152613610816135d4565b9050919050565b7f45524332303a207472616e7366657220746f20746865207a65726f206164647260008201527f6573730000000000000000000000000000000000000000000000000000000000602082015250565b60006136736023836127cc565b915061367e82613617565b604082019050919050565b600060208201905081810360008301526136a281613666565b9050919050565b7f45524332303a207472616e7366657220616d6f756e742065786365656473206260008201527f616c616e63650000000000000000000000000000000000000000000000000000602082015250565b60006137056026836127cc565b9150613710826136a9565b604082019050919050565b60006020820190508181036000830152613734816136f8565b9050919050565b600060a0820190506137506000830188612a40565b61375d6020830187612a40565b61376a6040830186612a40565b6137776060830185612982565b6137846080830184612a97565b9695505050505050565b7f4e487b7100000000000000000000000000000000000000000000000000000000600052601260045260246000fd5b60006137c8826128d6565b91506137d3836128d6565b9250826137e3576137e261378e565b5b828204905092915050565b60006040820190506138036000830185612982565b6138106020830184612982565b9392505050565b7f4552433230566f7465733a20746f74616c20737570706c79207269736b73206f60008201527f766572666c6f77696e6720766f74657300000000000000000000000000000000602082015250565b60006138736030836127cc565b915061387e82613817565b604082019050919050565b600060208201905081810360008301526138a281613866565b9050919050565b600081905092915050565b7f1901000000000000000000000000000000000000000000000000000000000000600082015250565b60006138ea6002836138a9565b91506138f5826138b4565b600282019050919050565b6000819050919050565b61391b61391682612a36565b613900565b82525050565b600061392c826138dd565b9150613938828561390a565b602082019150613948828461390a565b6020820191508190509392505050565b600060808201905061396d6000830187612a40565b61397a6020830186612a0c565b6139876040830185612a40565b6139946060830184612a40565b95945050505050565b7f4e487b7100000000000000000000000000000000000000000000000000000000600052602160045260246000fd5b7f45434453413a20696e76616c6964207369676e61747572650000000000000000600082015250565b6000613a026018836127cc565b9150613a0d826139cc565b602082019050919050565b60006020820190508181036000830152613a31816139f5565b9050919050565b7f45434453413a20696e76616c6964207369676e6174757265206c656e67746800600082015250565b6000613a6e601f836127cc565b9150613a7982613a38565b602082019050919050565b60006020820190508181036000830152613a9d81613a61565b9050919050565b7f45434453413a20696e76616c6964207369676e6174757265202773272076616c60008201527f7565000000000000000000000000000000000000000000000000000000000000602082015250565b6000613b006022836127cc565b9150613b0b82613aa4565b604082019050919050565b60006020820190508181036000830152613b2f81613af3565b9050919050565b7f45524332303a206d696e7420746f20746865207a65726f206164647265737300600082015250565b6000613b6c601f836127cc565b9150613b7782613b36565b602082019050919050565b60006020820190508181036000830152613b9b81613b5f565b9050919050565b7f53616665436173743a2076616c756520646f65736e27742066697420696e203260008201527f3234206269747300000000000000000000000000000000000000000000000000602082015250565b6000613bfe6027836127cc565b9150613c0982613ba2565b604082019050919050565b60006020820190508181036000830152613c2d81613bf1565b905091905056fea26469706673582212204b1da7a19ff798aa0c37ca8d2ee1224f0b70fa0248b3b592b816963a60633c1964736f6c63430008130033",
  "linkReferences": {},
  "deployedLinkReferences": {}
}