{
  "_format": "hh-sol-artifact-1",
  "contractName": "TCR",
  "sourceName": "contracts/TCR.sol",
  "abi": [
    {
      "inputs": [
        {
          "internalType": "address",
          "name": "_daoContract",
          "type": "address"
        }
      ],
      "stateMutability": "nonpayable",
      "type": "constructor"
    },
    {
      "anonymous": false,
      "inputs": [
        {
          "indexed": false,
          "internalType": "string",
          "name": "plmn",
          "type": "string"
        },
        {
          "indexed": true,
          "internalType": "address",
          "name": "deleter",
          "type": "address"
        }
      ],
      "name": "EntryDeleted",
      "type": "event"
    },
    {
      "anonymous": false,
      "inputs": [
        {
          "indexed": false,
          "internalType": "string",
          "name": "plmn",
          "type": "string"
        },
        {
          "indexed": true,
          "internalType": "address",
          "name": "proposer",
          "type": "address"
        },
        {
          "indexed": false,
          "internalType": "string",
          "name": "provider",
          "type": "string"
        },
        {
          "indexed": false,
          "internalType": "string",
          "name": "region",
          "type": "string"
        }
      ],
      "name": "NewEntry",
      "type": "event"
    },
    {
      "anonymous": false,
      "inputs": [
        {
          "indexed": true,
          "internalType": "address",
          "name": "previousOwner",
          "type": "address"
        },
        {
          "indexed": true,
          "internalType": "address",
          "name": "newOwner",
          "type": "address"
        }
      ],
      "name": "OwnershipTransferred",
      "type": "event"
    },
    {
      "inputs": [
        {
          "internalType": "string",
          "name": "plmn",
          "type": "string"
        },
        {
          "internalType": "string",
          "name": "provider",
          "type": "string"
        },
        {
          "internalType": "string",
          "name": "region",
          "type": "string"
        }
      ],
      "name": "createEntry",
      "outputs": [],
      "stateMutability": "nonpayable",
      "type": "function"
    },
    {
      "inputs": [],
      "name": "daoContract",
      "outputs": [
        {
          "internalType": "address",
          "name": "",
          "type": "address"
        }
      ],
      "stateMutability": "view",
      "type": "function"
    },
    {
      "inputs": [
        {
          "internalType": "string",
          "name": "plmn",
          "type": "string"
        }
      ],
      "name": "deleteEntry",
      "outputs": [],
      "stateMutability": "nonpayable",
      "type": "function"
    },
    {
      "inputs": [],
      "name": "owner",
      "outputs": [
        {
          "internalType": "address",
          "name": "",
          "type": "address"
        }
      ],
      "stateMutability": "view",
      "type": "function"
    },
    {
      "inputs": [
        {
          "internalType": "string",
          "name": "",
          "type": "string"
        }
      ],
      "name": "plmnRegistry",
      "outputs": [
        {
          "internalType": "string",
          "name": "plmn",
          "type": "string"
        },
        {
          "internalType": "address",
          "name": "proposer",
          "type": "address"
        },
        {
          "internalType": "string",
          "name": "provider",
          "type": "string"
        },
        {
          "internalType": "string",
          "name": "region",
          "type": "string"
        }
      ],
      "stateMutability": "view",
      "type": "function"
    },
    {
      "inputs": [],
      "name": "renounceOwnership",
      "outputs": [],
      "stateMutability": "nonpayable",
      "type": "function"
    },
    {
      "inputs": [
        {
          "internalType": "address",
          "name": "newOwner",
          "type": "address"
        }
      ],
      "name": "transferOwnership",
      "outputs": [],
      "stateMutability": "nonpayable",
      "type": "function"
    }
  ],
  "bytecode": "0x60806040523480156200001157600080fd5b50604051620012b7380380620012b78339818101604052810190620000379190620001d5565b620000576200004b6200009f60201b60201c565b620000a760201b60201c565b80600260006101000a81548173ffffffffffffffffffffffffffffffffffffffff021916908373ffffffffffffffffffffffffffffffffffffffff1602179055505062000207565b600033905090565b60008060009054906101000a900473ffffffffffffffffffffffffffffffffffffffff169050816000806101000a81548173ffffffffffffffffffffffffffffffffffffffff021916908373ffffffffffffffffffffffffffffffffffffffff1602179055508173ffffffffffffffffffffffffffffffffffffffff168173ffffffffffffffffffffffffffffffffffffffff167f8be0079c531659141344cd1fd0a4f28419497f9722a3daafe3b4186f6b6457e060405160405180910390a35050565b600080fd5b600073ffffffffffffffffffffffffffffffffffffffff82169050919050565b60006200019d8262000170565b9050919050565b620001af8162000190565b8114620001bb57600080fd5b50565b600081519050620001cf81620001a4565b92915050565b600060208284031215620001ee57620001ed6200016b565b5b6000620001fe84828501620001be565b91505092915050565b6110a080620002176000396000f3fe608060405234801561001057600080fd5b506004361061007d5760003560e01c8063715018a61161005b578063715018a6146100ef5780638da5cb5b146100f9578063b8ba58a514610117578063f2fde38b146101335761007d565b806317674544146100825780632f81848e1461009e5780634a7ffcbc146100d1575b600080fd5b61009c60048036038101906100979190610945565b61014f565b005b6100b860048036038101906100b39190610945565b610220565b6040516100c89493929190610a4e565b60405180910390f35b6100d961041e565b6040516100e69190610aa8565b60405180910390f35b6100f7610444565b005b610101610458565b60405161010e9190610aa8565b60405180910390f35b610131600480360381019061012c9190610ac3565b610481565b005b61014d60048036038101906101489190610b96565b6105c1565b005b610157610644565b6001816040516101679190610bff565b908152602001604051809103902060008082016000610186919061078e565b6001820160006101000a81549073ffffffffffffffffffffffffffffffffffffffff02191690556002820160006101bd919061078e565b6003820160006101cd919061078e565b50503373ffffffffffffffffffffffffffffffffffffffff167fdbd9afb762dc18d3c277214839ff058f5c6b804abe1321d089b5a2221f779bb7826040516102159190610c16565b60405180910390a250565b60018180516020810182018051848252602083016020850120818352809550505050505060009150905080600001805461025990610c67565b80601f016020809104026020016040519081016040528092919081815260200182805461028590610c67565b80156102d25780601f106102a7576101008083540402835291602001916102d2565b820191906000526020600020905b8154815290600101906020018083116102b557829003601f168201915b5050505050908060010160009054906101000a900473ffffffffffffffffffffffffffffffffffffffff169080600201805461030d90610c67565b80601f016020809104026020016040519081016040528092919081815260200182805461033990610c67565b80156103865780601f1061035b57610100808354040283529160200191610386565b820191906000526020600020905b81548152906001019060200180831161036957829003601f168201915b50505050509080600301805461039b90610c67565b80601f01602080910402602001604051908101604052809291908181526020018280546103c790610c67565b80156104145780601f106103e957610100808354040283529160200191610414565b820191906000526020600020905b8154815290600101906020018083116103f757829003601f168201915b5050505050905084565b600260009054906101000a900473ffffffffffffffffffffffffffffffffffffffff1681565b61044c610644565b61045660006106c2565b565b60008060009054906101000a900473ffffffffffffffffffffffffffffffffffffffff16905090565b610489610644565b60405180608001604052808481526020013373ffffffffffffffffffffffffffffffffffffffff168152602001838152602001828152506001846040516104d09190610bff565b908152602001604051809103902060008201518160000190816104f39190610e4e565b5060208201518160010160006101000a81548173ffffffffffffffffffffffffffffffffffffffff021916908373ffffffffffffffffffffffffffffffffffffffff16021790555060408201518160020190816105509190610e4e565b5060608201518160030190816105669190610e4e565b509050503373ffffffffffffffffffffffffffffffffffffffff167fb01b15cad0093f82a0e993c1937ef14d6f29a88f4d628570fa86a84e1dae41548484846040516105b493929190610f20565b60405180910390a2505050565b6105c9610644565b600073ffffffffffffffffffffffffffffffffffffffff168173ffffffffffffffffffffffffffffffffffffffff1603610638576040517f08c379a000000000000000000000000000000000000000000000000000000000815260040161062f90610fde565b60405180910390fd5b610641816106c2565b50565b61064c610786565b73ffffffffffffffffffffffffffffffffffffffff1661066a610458565b73ffffffffffffffffffffffffffffffffffffffff16146106c0576040517f08c379a00000000000000000000000000000000000000000000000000000000081526004016106b79061104a565b60405180910390fd5b565b60008060009054906101000a900473ffffffffffffffffffffffffffffffffffffffff169050816000806101000a81548173ffffffffffffffffffffffffffffffffffffffff021916908373ffffffffffffffffffffffffffffffffffffffff1602179055508173ffffffffffffffffffffffffffffffffffffffff168173ffffffffffffffffffffffffffffffffffffffff167f8be0079c531659141344cd1fd0a4f28419497f9722a3daafe3b4186f6b6457e060405160405180910390a35050565b600033905090565b50805461079a90610c67565b6000825580601f106107ac57506107cb565b601f0160209004906000526020600020908101906107ca91906107ce565b5b50565b5b808211156107e75760008160009055506001016107cf565b5090565b6000604051905090565b600080fd5b600080fd5b600080fd5b600080fd5b6000601f19601f8301169050919050565b7f4e487b7100000000000000000000000000000000000000000000000000000000600052604160045260246000fd5b61085282610809565b810181811067ffffffffffffffff821117156108715761087061081a565b5b80604052505050565b60006108846107eb565b90506108908282610849565b919050565b600067ffffffffffffffff8211156108b0576108af61081a565b5b6108b982610809565b9050602081019050919050565b82818337600083830152505050565b60006108e86108e384610895565b61087a565b90508281526020810184848401111561090457610903610804565b5b61090f8482856108c6565b509392505050565b600082601f83011261092c5761092b6107ff565b5b813561093c8482602086016108d5565b91505092915050565b60006020828403121561095b5761095a6107f5565b5b600082013567ffffffffffffffff811115610979576109786107fa565b5b61098584828501610917565b91505092915050565b600081519050919050565b600082825260208201905092915050565b60005b838110156109c85780820151818401526020810190506109ad565b60008484015250505050565b60006109df8261098e565b6109e98185610999565b93506109f98185602086016109aa565b610a0281610809565b840191505092915050565b600073ffffffffffffffffffffffffffffffffffffffff82169050919050565b6000610a3882610a0d565b9050919050565b610a4881610a2d565b82525050565b60006080820190508181036000830152610a6881876109d4565b9050610a776020830186610a3f565b8181036040830152610a8981856109d4565b90508181036060830152610a9d81846109d4565b905095945050505050565b6000602082019050610abd6000830184610a3f565b92915050565b600080600060608486031215610adc57610adb6107f5565b5b600084013567ffffffffffffffff811115610afa57610af96107fa565b5b610b0686828701610917565b935050602084013567ffffffffffffffff811115610b2757610b266107fa565b5b610b3386828701610917565b925050604084013567ffffffffffffffff811115610b5457610b536107fa565b5b610b6086828701610917565b9150509250925092565b610b7381610a2d565b8114610b7e57600080fd5b50565b600081359050610b9081610b6a565b92915050565b600060208284031215610bac57610bab6107f5565b5b6000610bba84828501610b81565b91505092915050565b600081905092915050565b6000610bd98261098e565b610be38185610bc3565b9350610bf38185602086016109aa565b80840191505092915050565b6000610c0b8284610bce565b915081905092915050565b60006020820190508181036000830152610c3081846109d4565b905092915050565b7f4e487b7100000000000000000000000000000000000000000000000000000000600052602260045260246000fd5b60006002820490506001821680610c7f57607f821691505b602082108103610c9257610c91610c38565b5b50919050565b60008190508160005260206000209050919050565b60006020601f8301049050919050565b600082821b905092915050565b600060088302610cfa7fffffffffffffffffffffffffffffffffffffffffffffffffffffffffffffffff82610cbd565b610d048683610cbd565b95508019841693508086168417925050509392505050565b6000819050919050565b6000819050919050565b6000610d4b610d46610d4184610d1c565b610d26565b610d1c565b9050919050565b6000819050919050565b610d6583610d30565b610d79610d7182610d52565b848454610cca565b825550505050565b600090565b610d8e610d81565b610d99818484610d5c565b505050565b5b81811015610dbd57610db2600082610d86565b600181019050610d9f565b5050565b601f821115610e0257610dd381610c98565b610ddc84610cad565b81016020851015610deb578190505b610dff610df785610cad565b830182610d9e565b50505b505050565b600082821c905092915050565b6000610e2560001984600802610e07565b1980831691505092915050565b6000610e3e8383610e14565b9150826002028217905092915050565b610e578261098e565b67ffffffffffffffff811115610e7057610e6f61081a565b5b610e7a8254610c67565b610e85828285610dc1565b600060209050601f831160018114610eb85760008415610ea6578287015190505b610eb08582610e32565b865550610f18565b601f198416610ec686610c98565b60005b82811015610eee57848901518255600182019150602085019450602081019050610ec9565b86831015610f0b5784890151610f07601f891682610e14565b8355505b6001600288020188555050505b505050505050565b60006060820190508181036000830152610f3a81866109d4565b90508181036020830152610f4e81856109d4565b90508181036040830152610f6281846109d4565b9050949350505050565b7f4f776e61626c653a206e6577206f776e657220697320746865207a65726f206160008201527f6464726573730000000000000000000000000000000000000000000000000000602082015250565b6000610fc8602683610999565b9150610fd382610f6c565b604082019050919050565b60006020820190508181036000830152610ff781610fbb565b9050919050565b7f4f776e61626c653a2063616c6c6572206973206e6f7420746865206f776e6572600082015250565b6000611034602083610999565b915061103f82610ffe565b602082019050919050565b6000602082019050818103600083015261106381611027565b905091905056fea26469706673582212202c24a9545119fa263d72d1fafe8ffb2abfe430aa3272bc1b03425c266f4c9bfe64736f6c63430008130033",
  "linkReferences": {},
  "deployedLinkReferences": {}
}